{
  "_format": "hh-sol-artifact-1",
  "contractName": "Campaign",
  "sourceName": "contracts/Campaign.sol",
  "abi": [
    {
      "inputs": [],
      "name": "InvalidProof",
      "type": "error"
    },
    {
      "inputs": [],
      "name": "Locked",
      "type": "error"
    },
    {
      "inputs": [],
      "name": "MerkleRootUpdateNotAllowed",
      "type": "error"
    },
    {
      "inputs": [],
      "name": "NoAssetsToWithdraw",
      "type": "error"
    },
    {
      "inputs": [],
      "name": "NoRewardAvailable",
      "type": "error"
    },
    {
      "inputs": [],
      "name": "OnlyGuardian",
      "type": "error"
    },
    {
      "inputs": [],
      "name": "OnlyInChallengePeriod",
      "type": "error"
    },
    {
      "inputs": [],
      "name": "OnlyOracle",
      "type": "error"
    },
    {
      "inputs": [],
      "name": "WithdrawalNotAllowed",
      "type": "error"
    },
    {
      "anonymous": false,
      "inputs": [
        {
          "indexed": false,
          "internalType": "enum Campaign.ChallengeAction",
          "name": "action",
          "type": "uint8"
        }
      ],
      "name": "Challenge",
      "type": "event"
    },
    {
      "anonymous": false,
      "inputs": [
        {
          "indexed": true,
          "internalType": "address",
          "name": "account",
          "type": "address"
        },
        {
          "indexed": false,
          "internalType": "uint256",
          "name": "share",
          "type": "uint256"
        },
        {
          "indexed": false,
          "internalType": "uint256",
          "name": "reward",
          "type": "uint256"
        },
        {
          "indexed": false,
          "internalType": "address",
          "name": "assset",
          "type": "address"
        }
      ],
      "name": "Claim",
      "type": "event"
    },
    {
      "anonymous": false,
      "inputs": [
        {
          "indexed": true,
          "internalType": "address",
          "name": "provider",
          "type": "address"
        },
        {
          "indexed": false,
          "internalType": "uint256",
          "name": "amount",
          "type": "uint256"
        },
        {
          "indexed": false,
          "internalType": "address",
          "name": "asset",
          "type": "address"
        }
      ],
      "name": "Fund",
      "type": "event"
    },
    {
      "anonymous": false,
      "inputs": [
        {
          "indexed": false,
          "internalType": "uint8",
          "name": "version",
          "type": "uint8"
        }
      ],
      "name": "Initialized",
      "type": "event"
    },
    {
      "anonymous": false,
      "inputs": [
        {
          "indexed": false,
          "internalType": "bool",
          "name": "locked",
          "type": "bool"
        }
      ],
      "name": "Lock",
      "type": "event"
    },
    {
      "anonymous": false,
      "inputs": [
        {
          "indexed": false,
          "internalType": "bytes32",
          "name": "sharesMerkleRoot",
          "type": "bytes32"
        },
        {
          "indexed": false,
          "internalType": "bytes32",
          "name": "sharesUri",
          "type": "bytes32"
        },
        {
          "indexed": false,
          "internalType": "uint256",
          "name": "activationTime",
          "type": "uint256"
        }
      ],
      "name": "SharesMerkleRootUpdate",
      "type": "event"
    },
    {
      "anonymous": false,
      "inputs": [
        {
          "indexed": true,
          "internalType": "address",
          "name": "account",
          "type": "address"
        },
        {
          "indexed": false,
          "internalType": "uint256",
          "name": "amount",
          "type": "uint256"
        },
        {
          "indexed": false,
          "internalType": "address",
          "name": "asset",
          "type": "address"
        }
      ],
      "name": "Withdraw",
      "type": "event"
    },
    {
      "inputs": [],
      "name": "ACTIVATION_PERIOD",
      "outputs": [
        {
          "internalType": "uint256",
          "name": "",
          "type": "uint256"
        }
      ],
      "stateMutability": "view",
      "type": "function"
    },
    {
      "inputs": [],
      "name": "ACTIVE_DURATION",
      "outputs": [
        {
          "internalType": "uint256",
          "name": "",
          "type": "uint256"
        }
      ],
      "stateMutability": "view",
      "type": "function"
    },
    {
      "inputs": [],
      "name": "CHALLENGE_PERIOD",
      "outputs": [
        {
          "internalType": "uint256",
          "name": "",
          "type": "uint256"
        }
      ],
      "stateMutability": "view",
      "type": "function"
    },
    {
      "inputs": [],
      "name": "TOTAL_SHARES",
      "outputs": [
        {
          "internalType": "uint256",
          "name": "",
          "type": "uint256"
        }
      ],
      "stateMutability": "view",
      "type": "function"
    },
    {
      "inputs": [],
      "name": "activationTime",
      "outputs": [
        {
          "internalType": "uint256",
          "name": "",
          "type": "uint256"
        }
      ],
      "stateMutability": "view",
      "type": "function"
    },
    {
      "inputs": [],
      "name": "approvedMerkleRoot",
      "outputs": [
        {
          "internalType": "bytes32",
          "name": "",
          "type": "bytes32"
        }
      ],
      "stateMutability": "view",
      "type": "function"
    },
    {
      "inputs": [
        {
          "internalType": "address",
          "name": "asset",
          "type": "address"
        }
      ],
      "name": "balanceOfAsset",
      "outputs": [
        {
          "internalType": "uint256",
          "name": "",
          "type": "uint256"
        }
      ],
      "stateMutability": "view",
      "type": "function"
    },
    {
      "inputs": [
        {
          "internalType": "enum Campaign.ChallengeAction",
          "name": "action",
          "type": "uint8"
        }
      ],
      "name": "challenge",
      "outputs": [],
      "stateMutability": "nonpayable",
      "type": "function"
    },
    {
      "inputs": [
        {
          "internalType": "address",
          "name": "account",
          "type": "address"
        },
        {
          "internalType": "uint256",
          "name": "share",
          "type": "uint256"
        },
        {
          "internalType": "bytes32[]",
          "name": "proof",
          "type": "bytes32[]"
        },
        {
          "internalType": "address[]",
          "name": "assets",
          "type": "address[]"
        },
        {
          "internalType": "address",
          "name": "target",
          "type": "address"
        }
      ],
      "name": "claim",
      "outputs": [],
      "stateMutability": "nonpayable",
      "type": "function"
    },
    {
      "inputs": [
        {
          "internalType": "address",
          "name": "",
          "type": "address"
        },
        {
          "internalType": "address",
          "name": "",
          "type": "address"
        }
      ],
      "name": "claimed",
      "outputs": [
        {
          "internalType": "uint256",
          "name": "",
          "type": "uint256"
        }
      ],
      "stateMutability": "view",
      "type": "function"
    },
    {
      "inputs": [],
      "name": "deployTime",
      "outputs": [
        {
          "internalType": "uint256",
          "name": "",
          "type": "uint256"
        }
      ],
      "stateMutability": "view",
      "type": "function"
    },
    {
      "inputs": [
        {
          "internalType": "address",
          "name": "asset",
          "type": "address"
        },
        {
          "internalType": "uint256",
          "name": "amount",
          "type": "uint256"
        }
      ],
      "name": "fund",
      "outputs": [],
      "stateMutability": "payable",
      "type": "function"
    },
    {
      "inputs": [],
      "name": "getValidRoot",
      "outputs": [
        {
          "internalType": "bytes32",
          "name": "root",
          "type": "bytes32"
        }
      ],
      "stateMutability": "view",
      "type": "function"
    },
    {
      "inputs": [],
      "name": "guardian",
      "outputs": [
        {
          "internalType": "address",
          "name": "",
          "type": "address"
        }
      ],
      "stateMutability": "view",
      "type": "function"
    },
    {
      "inputs": [
        {
          "internalType": "bytes32",
          "name": "_strategyUri",
          "type": "bytes32"
        },
        {
          "internalType": "address",
          "name": "_guardian",
          "type": "address"
        },
        {
          "internalType": "address",
          "name": "_oracle",
          "type": "address"
        },
        {
          "internalType": "uint256",
          "name": "_activationTime",
          "type": "uint256"
        },
        {
          "internalType": "uint256",
          "name": "_CHALLENGE_PERIOD",
          "type": "uint256"
        },
        {
          "internalType": "uint256",
          "name": "_ACTIVATION_PERIOD",
          "type": "uint256"
        },
        {
          "internalType": "uint256",
          "name": "_ACTIVE_DURATION",
          "type": "uint256"
        }
      ],
      "name": "initCampaign",
      "outputs": [],
      "stateMutability": "nonpayable",
      "type": "function"
    },
    {
      "inputs": [],
      "name": "isChallengePeriod",
      "outputs": [
        {
          "internalType": "bool",
          "name": "",
          "type": "bool"
        }
      ],
      "stateMutability": "view",
      "type": "function"
    },
    {
      "inputs": [],
      "name": "isPendingActive",
      "outputs": [
        {
          "internalType": "bool",
          "name": "isActive",
          "type": "bool"
        }
      ],
      "stateMutability": "view",
      "type": "function"
    },
    {
      "inputs": [],
      "name": "isProposeWindowActive",
      "outputs": [
        {
          "internalType": "bool",
          "name": "",
          "type": "bool"
        }
      ],
      "stateMutability": "view",
      "type": "function"
    },
    {
      "inputs": [],
      "name": "lockForWithdrawals",
      "outputs": [
        {
          "internalType": "bool",
          "name": "",
          "type": "bool"
        }
      ],
      "stateMutability": "view",
      "type": "function"
    },
    {
      "inputs": [],
      "name": "locked",
      "outputs": [
        {
          "internalType": "bool",
          "name": "",
          "type": "bool"
        }
      ],
      "stateMutability": "view",
      "type": "function"
    },
    {
      "inputs": [],
      "name": "merkleRootUpdateAllowed",
      "outputs": [
        {
          "internalType": "bool",
          "name": "",
          "type": "bool"
        }
      ],
      "stateMutability": "view",
      "type": "function"
    },
    {
      "inputs": [],
      "name": "oracle",
      "outputs": [
        {
          "internalType": "address",
          "name": "",
          "type": "address"
        }
      ],
      "stateMutability": "view",
      "type": "function"
    },
    {
      "inputs": [],
      "name": "pendingMerkleRoot",
      "outputs": [
        {
          "internalType": "bytes32",
          "name": "",
          "type": "bytes32"
        }
      ],
      "stateMutability": "view",
      "type": "function"
    },
    {
      "inputs": [
        {
          "internalType": "bytes32",
          "name": "_sharesMerkleRoot",
          "type": "bytes32"
        },
        {
          "internalType": "bytes32",
          "name": "_sharesUri",
          "type": "bytes32"
        }
      ],
      "name": "proposeShares",
      "outputs": [],
      "stateMutability": "nonpayable",
      "type": "function"
    },
    {
      "inputs": [
        {
          "internalType": "address",
          "name": "",
          "type": "address"
        },
        {
          "internalType": "address",
          "name": "",
          "type": "address"
        }
      ],
      "name": "providers",
      "outputs": [
        {
          "internalType": "uint256",
          "name": "",
          "type": "uint256"
        }
      ],
      "stateMutability": "view",
      "type": "function"
    },
    {
      "inputs": [
        {
          "internalType": "address",
          "name": "account",
          "type": "address"
        },
        {
          "internalType": "uint256",
          "name": "share",
          "type": "uint256"
        },
        {
          "internalType": "address",
          "name": "asset",
          "type": "address"
        }
      ],
      "name": "rewardsAvailableToClaimer",
      "outputs": [
        {
          "internalType": "uint256",
          "name": "total",
          "type": "uint256"
        }
      ],
      "stateMutability": "view",
      "type": "function"
    },
    {
      "inputs": [
        {
          "internalType": "bool",
          "name": "_lock",
          "type": "bool"
        }
      ],
      "name": "setLock",
      "outputs": [],
      "stateMutability": "nonpayable",
      "type": "function"
    },
    {
      "inputs": [],
      "name": "strategyUri",
      "outputs": [
        {
          "internalType": "bytes32",
          "name": "",
          "type": "bytes32"
        }
      ],
      "stateMutability": "view",
      "type": "function"
    },
    {
      "inputs": [
        {
          "internalType": "address",
          "name": "",
          "type": "address"
        }
      ],
      "name": "totalClaimed",
      "outputs": [
        {
          "internalType": "uint256",
          "name": "",
          "type": "uint256"
        }
      ],
      "stateMutability": "view",
      "type": "function"
    },
    {
      "inputs": [
        {
          "internalType": "address",
          "name": "asset",
          "type": "address"
        }
      ],
      "name": "totalReceived",
      "outputs": [
        {
          "internalType": "uint256",
          "name": "total",
          "type": "uint256"
        }
      ],
      "stateMutability": "view",
      "type": "function"
    },
    {
      "inputs": [
        {
          "internalType": "address",
          "name": "account",
          "type": "address"
        },
        {
          "internalType": "uint256",
          "name": "share",
          "type": "uint256"
        },
        {
          "internalType": "bytes32[]",
          "name": "proof",
          "type": "bytes32[]"
        }
      ],
      "name": "verifyShares",
      "outputs": [],
      "stateMutability": "view",
      "type": "function"
    },
    {
      "inputs": [],
      "name": "withdrawAllowed",
      "outputs": [
        {
          "internalType": "bool",
          "name": "",
          "type": "bool"
        }
      ],
      "stateMutability": "view",
      "type": "function"
    },
    {
      "inputs": [
        {
          "internalType": "address",
          "name": "account",
          "type": "address"
        },
        {
          "internalType": "address",
          "name": "asset",
          "type": "address"
        }
      ],
      "name": "withdrawAssets",
      "outputs": [],
      "stateMutability": "nonpayable",
      "type": "function"
    },
    {
      "stateMutability": "payable",
      "type": "receive"
    }
  ],
  "bytecode": "0x608060405234801561001057600080fd5b506001805561190e806100246000396000f3fe6080604052600436106101f15760003560e01c80637b1837de1161010d578063aab2ce79116100a0578063c3a079ed1161006f578063c3a079ed1461055c578063cf30901214610572578063d3f323571461058c578063da4493f6146105ac578063ef5d9ae8146105c257600080fd5b8063aab2ce79146104e7578063be8b7686146104fc578063c1d899411461051c578063c24e47781461053c57600080fd5b80638abb5d22116100dc5780638abb5d221461047b5780639637f4751461049b578063a98acb46146104b1578063a9ec3a1b146104d157600080fd5b80637b1837de146104155780637c99ca6d146104285780637dc0d1d01461043f57806385e3f9971461045f57600080fd5b80634df9cfb3116101855780636c4fbc4a116101545780636c4fbc4a146103bf578063717f9092146103d457806375e07c2d146103ea5780637a40624b146103ff57600080fd5b80634df9cfb314610355578063510cbd9c14610375578063574eab011461038a578063619d51941461039f57600080fd5b80633e161940116101c15780633e161940146102aa57806340bcf748146102c057806344949728146102f8578063452a93201461031d57600080fd5b80627c4d51146102095780630c9cbf0e14610232578063162dfe001461026a57806317b9d05e1461028a57600080fd5b3661020457610202346000336105ef565b005b600080fd5b34801561021557600080fd5b5061021f60045481565b6040519081526020015b60405180910390f35b34801561023e57600080fd5b5061021f61024d366004611496565b600d60209081526000928352604080842090915290825290205481565b34801561027657600080fd5b5061020261028536600461152f565b61069a565b34801561029657600080fd5b506102026102a53660046116bf565b61074d565b3480156102b657600080fd5b5061021f60035481565b3480156102cc57600080fd5b5061021f6102db366004611496565b600f60209081526000928352604080842090915290825290205481565b34801561030457600080fd5b5061030d610821565b6040519015158152602001610229565b34801561032957600080fd5b50600a5461033d906001600160a01b031681565b6040516001600160a01b039091168152602001610229565b34801561036157600080fd5b5061021f61037036600461147b565b610847565b34801561038157600080fd5b5061030d610879565b34801561039657600080fd5b5061030d6108a6565b3480156103ab57600080fd5b506102026103ba366004611624565b6108cf565b3480156103cb57600080fd5b5061030d610942565b3480156103e057600080fd5b5061021f60095481565b3480156103f657600080fd5b5061021f610954565b34801561040b57600080fd5b5061021f60085481565b6102026104233660046114c9565b610975565b34801561043457600080fd5b50600754421161030d565b34801561044b57600080fd5b50600b5461033d906001600160a01b031681565b34801561046b57600080fd5b5061021f670de0b6b3a764000081565b34801561048757600080fd5b50610202610496366004611589565b610a03565b3480156104a757600080fd5b5061021f60065481565b3480156104bd57600080fd5b506102026104cc36600461165e565b610a6f565b3480156104dd57600080fd5b5061021f60055481565b3480156104f357600080fd5b5061030d610bd6565b34801561050857600080fd5b5061021f6105173660046114f3565b610bec565b34801561052857600080fd5b5061021f61053736600461147b565b610c4f565b34801561054857600080fd5b50610202610557366004611496565b610ce3565b34801561056857600080fd5b5061021f60025481565b34801561057e57600080fd5b50600e5461030d9060ff1681565b34801561059857600080fd5b506102026105a73660046116e1565b610dc2565b3480156105b857600080fd5b5061021f60075481565b3480156105ce57600080fd5b5061021f6105dd36600461147b565b600c6020526000908152604090205481565b6001600160a01b038083166000908152600f6020908152604080832093851683529290529081208054859290610626908490611792565b90915550506001600160a01b0382161561064f5761064f6001600160a01b038316823086610ec3565b604080518481526001600160a01b0384811660208301528316917fa5e8482b3a4fbac393476288e591dd9316d7304a537b26f9b67167f0ce19750f91015b60405180910390a2505050565b60006106a4610954565b6040516bffffffffffffffffffffffff19606088901b16602082015260348101869052909150600090605401604051602081830303815290604052805190602001209050610728848480806020026020016040519081016040528093929190818152602001838360200280828437600092019190915250869250859150610f349050565b610745576040516309bde33960e01b815260040160405180910390fd5b505050505050565b600b546001600160a01b03163314610778576040516380fee10560e01b815260040160405180910390fd5b600e5460ff161561079c576040516303cb96db60e21b815260040160405180910390fd5b6107a4610879565b6107c157604051631aeebaf760e11b815260040160405180910390fd5b600680546005558290556002546107d89042611792565b6007819055604080518481526020810184905280820192909252517f93d244ac7b8f4282b061b1dcb3f543f36f06af40a7bfdefe04fc913ef7ea54f99181900360600190a15050565b60006004546003546008544261083791906117dd565b610841919061185b565b10905090565b6001600160a01b0381166000908152600c602052604081205461086983610c4f565b6108739190611792565b92915050565b6000610883610942565b1561088e5750600090565b610896610821565b6108a05750600090565b50600190565b600e5460009060ff1680156108be57506108be610bd6565b156108c95750600190565b50600090565b600a546001600160a01b031633146108fa57604051636570ecab60e11b815260040160405180910390fd5b600e805460ff19168215159081179091556040519081527f73cb6ff886d89c3816d03270daa43e4789d7c218d9a12960651ff278e1fef1f1906020015b60405180910390a150565b60006007544210156108c95750600190565b6000610961600754421190565b61096c575060055490565b6006545b905090565b600260015414156109cd5760405162461bcd60e51b815260206004820152601f60248201527f5265656e7472616e637947756172643a207265656e7472616e742063616c6c0060448201526064015b60405180910390fd5b60026001556001600160a01b0382166109f0576109eb3483336105ef565b6109fb565b6109fb8183336105ef565b505060018055565b610a0f8787878761069a565b60005b60ff8116831115610a6557610a53888886868560ff16818110610a3757610a376118b1565b9050602002016020810190610a4c919061147b565b3386610f4a565b80610a5d8161183b565b915050610a12565b5050505050505050565b600054610100900460ff1615808015610a8f5750600054600160ff909116105b80610aa95750303b158015610aa9575060005460ff166001145b610b0c5760405162461bcd60e51b815260206004820152602e60248201527f496e697469616c697a61626c653a20636f6e747261637420697320616c72656160448201526d191e481a5b9a5d1a585b1a5e995960921b60648201526084016109c4565b6000805460ff191660011790558015610b2f576000805461ff0019166101001790555b6009889055600a80546001600160a01b03808a166001600160a01b031992831617909255600b80549289169290911691909117905584610b6f5742610b71565b845b600755426008556002849055600383905560048290558015610a65576000805461ff0019169055604051600181527f7f26b83ff96e1f2b6a682f133852f6798a09c465da95921460cefb38474024989060200160405180910390a15050505050505050565b6005546000901580156109705750506006541590565b6001600160a01b038082166000908152600d60209081526040808320938716835292905290812054670de0b6b3a764000084610c2785610847565b610c3191906117be565b610c3b91906117aa565b610c4591906117dd565b90505b9392505050565b60006001600160a01b03821615610cdc576040516370a0823160e01b81523060048201526001600160a01b038316906370a082319060240160206040518083038186803b158015610c9f57600080fd5b505afa158015610cb3573d6000803e3d6000fd5b505050506040513d601f19601f82011682018060405250810190610cd79190611702565b610873565b4792915050565b610ceb6108a6565b15610da9576001600160a01b038082166000908152600f602090815260408083209386168352929052205480610d3457604051635da3252f60e11b815260040160405180910390fd5b6001600160a01b038083166000908152600f60209081526040808320938716835292905290812055610d6783828461105d565b604080518281526001600160a01b0384811660208301528516917f56c54ba9bd38d8fd62012e42c7ee564519b09763c426d331b3661b537ead19b2910161068d565b60405163209a769d60e11b815260040160405180910390fd5b600a546001600160a01b03163314610ded57604051636570ecab60e11b815260040160405180910390fd5b600e5460ff1615610e11576040516303cb96db60e21b815260040160405180910390fd5b610e19610942565b610e3657604051631b69dd1760e21b815260040160405180910390fd5b60006006556001816002811115610e4f57610e4f61189b565b1415610e6757600e805460ff19166001179055610e94565b6002816002811115610e7b57610e7b61189b565b1415610e9457600e805460ff1916600117905560006005555b7f0b700a39eebc9d322d0a5829d3d6447d9e000f73a89a7baa6a0fa28a5ec9c8d0816040516109379190611737565b6040516001600160a01b0380851660248301528316604482015260648101829052610f2e9085906323b872dd60e01b906084015b60408051601f198184030181529190526020810180516001600160e01b03166001600160e01b03199093169290921790915261111f565b50505050565b600082610f4185846111f1565b14949350505050565b6000610f57868686610bec565b6001600160a01b038086166000908152600d60209081526040808320938b16835292905290812080549293508392909190610f93908490611792565b90915550506001600160a01b0384166000908152600c602052604081208054839290610fc0908490611792565b90915550506001600160a01b03838116908716148015610fe857506001600160a01b03821615155b15610ffd57610ff882828661105d565b611008565b61100886828661105d565b60408051868152602081018390526001600160a01b03868116828401529151918816917fb6fe5ce185a3773d47e919f57c7edfd102c91cb7833b2be405c4de89d9980fd79181900360600190a2505050505050565b6001600160a01b038116611106576000836001600160a01b03168360405160006040518083038185875af1925050503d80600081146110b8576040519150601f19603f3d011682016040523d82523d6000602084013e6110bd565b606091505b5050905080610f2e5760405162461bcd60e51b8152602060048201526015602482015274195d1a195c881d1c985b9cd9995c8819985a5b1959605a1b60448201526064016109c4565b61111a6001600160a01b038216848461123e565b505050565b6000611174826040518060400160405280602081526020017f5361666545524332303a206c6f772d6c6576656c2063616c6c206661696c6564815250856001600160a01b031661126e9092919063ffffffff16565b80519091501561111a57808060200190518101906111929190611641565b61111a5760405162461bcd60e51b815260206004820152602a60248201527f5361666545524332303a204552433230206f7065726174696f6e20646964206e6044820152691bdd081cdd58d8d9595960b21b60648201526084016109c4565b600081815b84518110156112365761122282868381518110611215576112156118b1565b602002602001015161127d565b91508061122e81611820565b9150506111f6565b509392505050565b6040516001600160a01b03831660248201526044810182905261111a90849063a9059cbb60e01b90606401610ef7565b6060610c4584846000856112a9565b6000818310611299576000828152602084905260409020610c48565b5060009182526020526040902090565b60608247101561130a5760405162461bcd60e51b815260206004820152602660248201527f416464726573733a20696e73756666696369656e742062616c616e636520666f6044820152651c8818d85b1b60d21b60648201526084016109c4565b6001600160a01b0385163b6113615760405162461bcd60e51b815260206004820152601d60248201527f416464726573733a2063616c6c20746f206e6f6e2d636f6e747261637400000060448201526064016109c4565b600080866001600160a01b0316858760405161137d919061171b565b60006040518083038185875af1925050503d80600081146113ba576040519150601f19603f3d011682016040523d82523d6000602084013e6113bf565b606091505b50915091506113cf8282866113da565b979650505050505050565b606083156113e9575081610c48565b8251156113f95782518084602001fd5b8160405162461bcd60e51b81526004016109c4919061175f565b80356001600160a01b038116811461142a57600080fd5b919050565b60008083601f84011261144157600080fd5b50813567ffffffffffffffff81111561145957600080fd5b6020830191508360208260051b850101111561147457600080fd5b9250929050565b60006020828403121561148d57600080fd5b610c4882611413565b600080604083850312156114a957600080fd5b6114b283611413565b91506114c060208401611413565b90509250929050565b600080604083850312156114dc57600080fd5b6114e583611413565b946020939093013593505050565b60008060006060848603121561150857600080fd5b61151184611413565b92506020840135915061152660408501611413565b90509250925092565b6000806000806060858703121561154557600080fd5b61154e85611413565b935060208501359250604085013567ffffffffffffffff81111561157157600080fd5b61157d8782880161142f565b95989497509550505050565b600080600080600080600060a0888a0312156115a457600080fd5b6115ad88611413565b965060208801359550604088013567ffffffffffffffff808211156115d157600080fd5b6115dd8b838c0161142f565b909750955060608a01359150808211156115f657600080fd5b506116038a828b0161142f565b9094509250611616905060808901611413565b905092959891949750929550565b60006020828403121561163657600080fd5b8135610c48816118c7565b60006020828403121561165357600080fd5b8151610c48816118c7565b600080600080600080600060e0888a03121561167957600080fd5b8735965061168960208901611413565b955061169760408901611413565b969995985095966060810135965060808101359560a0820135955060c0909101359350915050565b600080604083850312156116d257600080fd5b50508035926020909101359150565b6000602082840312156116f357600080fd5b813560038110610c4857600080fd5b60006020828403121561171457600080fd5b5051919050565b6000825161172d8184602087016117f4565b9190910192915050565b602081016003831061175957634e487b7160e01b600052602160045260246000fd5b91905290565b602081526000825180602084015261177e8160408501602087016117f4565b601f01601f19169190910160400192915050565b600082198211156117a5576117a561186f565b500190565b6000826117b9576117b9611885565b500490565b60008160001904831182151516156117d8576117d861186f565b500290565b6000828210156117ef576117ef61186f565b500390565b60005b8381101561180f5781810151838201526020016117f7565b83811115610f2e5750506000910152565b60006000198214156118345761183461186f565b5060010190565b600060ff821660ff8114156118525761185261186f565b60010192915050565b60008261186a5761186a611885565b500690565b634e487b7160e01b600052601160045260246000fd5b634e487b7160e01b600052601260045260246000fd5b634e487b7160e01b600052602160045260246000fd5b634e487b7160e01b600052603260045260246000fd5b80151581146118d557600080fd5b5056fea264697066735822122007986c30bda62148d579367dc9f6fd2e8e94b24c69dc1edc8e520d76148609fa64736f6c63430008060033",
  "linkReferences": {},
  "deployedLinkReferences": {}
}