{
  "_format": "hh-sol-artifact-1",
  "contractName": "Campaign",
  "sourceName": "contracts/Campaign.sol",
  "abi": [
    {
      "inputs": [
        {
          "internalType": "uint256",
          "name": "blockTime",
          "type": "uint256"
        }
      ],
      "name": "ChallengePeriodActive",
      "type": "error"
    },
    {
      "inputs": [],
      "name": "InvalidProof",
      "type": "error"
    },
    {
      "inputs": [],
      "name": "Locked",
      "type": "error"
    },
    {
      "inputs": [],
      "name": "NoAssetsToWithdraw",
      "type": "error"
    },
    {
      "inputs": [],
      "name": "NoRewardAvailable",
      "type": "error"
    },
    {
      "inputs": [],
      "name": "OnlyGuardian",
      "type": "error"
    },
    {
      "inputs": [
        {
          "internalType": "uint256",
          "name": "blockTime",
          "type": "uint256"
        }
      ],
      "name": "OnlyInChallengePeriod",
      "type": "error"
    },
    {
      "inputs": [],
      "name": "OnlyOracle",
      "type": "error"
    },
    {
      "inputs": [
        {
          "internalType": "uint256",
          "name": "blockTime",
          "type": "uint256"
        }
      ],
      "name": "ProposeWindowNotActive",
      "type": "error"
    },
    {
      "inputs": [],
      "name": "WithdrawalNotAllowed",
      "type": "error"
    },
    {
      "anonymous": false,
      "inputs": [
        {
          "indexed": false,
          "internalType": "enum Campaign.ChallengeAction",
          "name": "action",
          "type": "uint8"
        }
      ],
      "name": "Challenge",
      "type": "event"
    },
    {
      "anonymous": false,
      "inputs": [
        {
          "indexed": true,
          "internalType": "address",
          "name": "account",
          "type": "address"
        },
        {
          "indexed": false,
          "internalType": "uint256",
          "name": "share",
          "type": "uint256"
        },
        {
          "indexed": false,
          "internalType": "uint256",
          "name": "reward",
          "type": "uint256"
        },
        {
          "indexed": false,
          "internalType": "address",
          "name": "assset",
          "type": "address"
        }
      ],
      "name": "Claim",
      "type": "event"
    },
    {
      "anonymous": false,
      "inputs": [
        {
          "indexed": true,
          "internalType": "address",
          "name": "provider",
          "type": "address"
        },
        {
          "indexed": false,
          "internalType": "uint256",
          "name": "amount",
          "type": "uint256"
        },
        {
          "indexed": false,
          "internalType": "address",
          "name": "asset",
          "type": "address"
        }
      ],
      "name": "Fund",
      "type": "event"
    },
    {
      "anonymous": false,
      "inputs": [
        {
          "indexed": false,
          "internalType": "uint8",
          "name": "version",
          "type": "uint8"
        }
      ],
      "name": "Initialized",
      "type": "event"
    },
    {
      "anonymous": false,
      "inputs": [
        {
          "indexed": false,
          "internalType": "bool",
          "name": "locked",
          "type": "bool"
        }
      ],
      "name": "Lock",
      "type": "event"
    },
    {
      "anonymous": false,
      "inputs": [
        {
          "indexed": false,
          "internalType": "bytes32",
          "name": "sharesMerkleRoot",
          "type": "bytes32"
        },
        {
          "indexed": false,
          "internalType": "bytes32",
          "name": "sharesUri",
          "type": "bytes32"
        },
        {
          "indexed": false,
          "internalType": "uint256",
          "name": "activationTime",
          "type": "uint256"
        }
      ],
      "name": "SharesMerkleRootUpdate",
      "type": "event"
    },
    {
      "anonymous": false,
      "inputs": [
        {
          "indexed": true,
          "internalType": "address",
          "name": "account",
          "type": "address"
        },
        {
          "indexed": false,
          "internalType": "uint256",
          "name": "amount",
          "type": "uint256"
        },
        {
          "indexed": false,
          "internalType": "address",
          "name": "asset",
          "type": "address"
        }
      ],
      "name": "Withdraw",
      "type": "event"
    },
    {
      "inputs": [],
      "name": "ACTIVATION_PERIOD",
      "outputs": [
        {
          "internalType": "uint256",
          "name": "",
          "type": "uint256"
        }
      ],
      "stateMutability": "view",
      "type": "function"
    },
    {
      "inputs": [],
      "name": "ACTIVE_DURATION",
      "outputs": [
        {
          "internalType": "uint256",
          "name": "",
          "type": "uint256"
        }
      ],
      "stateMutability": "view",
      "type": "function"
    },
    {
      "inputs": [],
      "name": "CHALLENGE_PERIOD",
      "outputs": [
        {
          "internalType": "uint256",
          "name": "",
          "type": "uint256"
        }
      ],
      "stateMutability": "view",
      "type": "function"
    },
    {
      "inputs": [],
      "name": "TOTAL_SHARES",
      "outputs": [
        {
          "internalType": "uint256",
          "name": "",
          "type": "uint256"
        }
      ],
      "stateMutability": "view",
      "type": "function"
    },
    {
      "inputs": [],
      "name": "activationTime",
      "outputs": [
        {
          "internalType": "uint256",
          "name": "",
          "type": "uint256"
        }
      ],
      "stateMutability": "view",
      "type": "function"
    },
    {
      "inputs": [],
      "name": "approvedMerkleRoot",
      "outputs": [
        {
          "internalType": "bytes32",
          "name": "",
          "type": "bytes32"
        }
      ],
      "stateMutability": "view",
      "type": "function"
    },
    {
      "inputs": [
        {
          "internalType": "address",
          "name": "asset",
          "type": "address"
        }
      ],
      "name": "balanceOfAsset",
      "outputs": [
        {
          "internalType": "uint256",
          "name": "",
          "type": "uint256"
        }
      ],
      "stateMutability": "view",
      "type": "function"
    },
    {
      "inputs": [
        {
          "internalType": "enum Campaign.ChallengeAction",
          "name": "action",
          "type": "uint8"
        }
      ],
      "name": "challenge",
      "outputs": [],
      "stateMutability": "nonpayable",
      "type": "function"
    },
    {
      "inputs": [],
      "name": "checkChallengePeriod",
      "outputs": [],
      "stateMutability": "view",
      "type": "function"
    },
    {
      "inputs": [],
      "name": "checkMerkleRootUpdateAllowed",
      "outputs": [],
      "stateMutability": "view",
      "type": "function"
    },
    {
      "inputs": [],
      "name": "checkProposeWindowActive",
      "outputs": [],
      "stateMutability": "view",
      "type": "function"
    },
    {
      "inputs": [
        {
          "internalType": "address",
          "name": "account",
          "type": "address"
        },
        {
          "internalType": "uint256",
          "name": "share",
          "type": "uint256"
        },
        {
          "internalType": "bytes32[]",
          "name": "proof",
          "type": "bytes32[]"
        },
        {
          "internalType": "address[]",
          "name": "assets",
          "type": "address[]"
        },
        {
          "internalType": "address",
          "name": "target",
          "type": "address"
        }
      ],
      "name": "claim",
      "outputs": [],
      "stateMutability": "nonpayable",
      "type": "function"
    },
    {
      "inputs": [
        {
          "internalType": "address",
          "name": "",
          "type": "address"
        },
        {
          "internalType": "address",
          "name": "",
          "type": "address"
        }
      ],
      "name": "claimed",
      "outputs": [
        {
          "internalType": "uint256",
          "name": "",
          "type": "uint256"
        }
      ],
      "stateMutability": "view",
      "type": "function"
    },
    {
      "inputs": [],
      "name": "deployTime",
      "outputs": [
        {
          "internalType": "uint256",
          "name": "",
          "type": "uint256"
        }
      ],
      "stateMutability": "view",
      "type": "function"
    },
    {
      "inputs": [
        {
          "internalType": "address",
          "name": "asset",
          "type": "address"
        },
        {
          "internalType": "uint256",
          "name": "amount",
          "type": "uint256"
        }
      ],
      "name": "fund",
      "outputs": [],
      "stateMutability": "payable",
      "type": "function"
    },
    {
      "inputs": [],
      "name": "getValidRoot",
      "outputs": [
        {
          "internalType": "bytes32",
          "name": "root",
          "type": "bytes32"
        }
      ],
      "stateMutability": "view",
      "type": "function"
    },
    {
      "inputs": [],
      "name": "guardian",
      "outputs": [
        {
          "internalType": "address",
          "name": "",
          "type": "address"
        }
      ],
      "stateMutability": "view",
      "type": "function"
    },
    {
      "inputs": [
        {
          "internalType": "bytes32",
          "name": "_strategyUri",
          "type": "bytes32"
        },
        {
          "internalType": "address",
          "name": "_guardian",
          "type": "address"
        },
        {
          "internalType": "address",
          "name": "_oracle",
          "type": "address"
        },
        {
          "internalType": "uint256",
          "name": "_activationTime",
          "type": "uint256"
        },
        {
          "internalType": "uint256",
          "name": "_CHALLENGE_PERIOD",
          "type": "uint256"
        },
        {
          "internalType": "uint256",
          "name": "_ACTIVATION_PERIOD",
          "type": "uint256"
        },
        {
          "internalType": "uint256",
          "name": "_ACTIVE_DURATION",
          "type": "uint256"
        }
      ],
      "name": "initCampaign",
      "outputs": [],
      "stateMutability": "nonpayable",
      "type": "function"
    },
    {
      "inputs": [],
      "name": "isChallengePeriod",
      "outputs": [
        {
          "internalType": "bool",
          "name": "",
          "type": "bool"
        }
      ],
      "stateMutability": "view",
      "type": "function"
    },
    {
      "inputs": [],
      "name": "isPendingActive",
      "outputs": [
        {
          "internalType": "bool",
          "name": "isActive",
          "type": "bool"
        }
      ],
      "stateMutability": "view",
      "type": "function"
    },
    {
      "inputs": [],
      "name": "isProposeWindowActive",
      "outputs": [
        {
          "internalType": "bool",
          "name": "",
          "type": "bool"
        }
      ],
      "stateMutability": "view",
      "type": "function"
    },
    {
      "inputs": [],
      "name": "lockForWithdrawals",
      "outputs": [
        {
          "internalType": "bool",
          "name": "",
          "type": "bool"
        }
      ],
      "stateMutability": "view",
      "type": "function"
    },
    {
      "inputs": [],
      "name": "locked",
      "outputs": [
        {
          "internalType": "bool",
          "name": "",
          "type": "bool"
        }
      ],
      "stateMutability": "view",
      "type": "function"
    },
    {
      "inputs": [],
      "name": "oracle",
      "outputs": [
        {
          "internalType": "address",
          "name": "",
          "type": "address"
        }
      ],
      "stateMutability": "view",
      "type": "function"
    },
    {
      "inputs": [],
      "name": "pendingMerkleRoot",
      "outputs": [
        {
          "internalType": "bytes32",
          "name": "",
          "type": "bytes32"
        }
      ],
      "stateMutability": "view",
      "type": "function"
    },
    {
      "inputs": [
        {
          "internalType": "bytes32",
          "name": "_sharesMerkleRoot",
          "type": "bytes32"
        },
        {
          "internalType": "bytes32",
          "name": "_sharesUri",
          "type": "bytes32"
        }
      ],
      "name": "proposeShares",
      "outputs": [],
      "stateMutability": "nonpayable",
      "type": "function"
    },
    {
      "inputs": [
        {
          "internalType": "address",
          "name": "",
          "type": "address"
        },
        {
          "internalType": "address",
          "name": "",
          "type": "address"
        }
      ],
      "name": "providers",
      "outputs": [
        {
          "internalType": "uint256",
          "name": "",
          "type": "uint256"
        }
      ],
      "stateMutability": "view",
      "type": "function"
    },
    {
      "inputs": [
        {
          "internalType": "address",
          "name": "account",
          "type": "address"
        },
        {
          "internalType": "uint256",
          "name": "share",
          "type": "uint256"
        },
        {
          "internalType": "address",
          "name": "asset",
          "type": "address"
        }
      ],
      "name": "rewardsAvailableToClaimer",
      "outputs": [
        {
          "internalType": "uint256",
          "name": "total",
          "type": "uint256"
        }
      ],
      "stateMutability": "view",
      "type": "function"
    },
    {
      "inputs": [
        {
          "internalType": "bool",
          "name": "_lock",
          "type": "bool"
        }
      ],
      "name": "setLock",
      "outputs": [],
      "stateMutability": "nonpayable",
      "type": "function"
    },
    {
      "inputs": [],
      "name": "strategyUri",
      "outputs": [
        {
          "internalType": "bytes32",
          "name": "",
          "type": "bytes32"
        }
      ],
      "stateMutability": "view",
      "type": "function"
    },
    {
      "inputs": [
        {
          "internalType": "address",
          "name": "",
          "type": "address"
        }
      ],
      "name": "totalClaimed",
      "outputs": [
        {
          "internalType": "uint256",
          "name": "",
          "type": "uint256"
        }
      ],
      "stateMutability": "view",
      "type": "function"
    },
    {
      "inputs": [
        {
          "internalType": "address",
          "name": "asset",
          "type": "address"
        }
      ],
      "name": "totalReceived",
      "outputs": [
        {
          "internalType": "uint256",
          "name": "total",
          "type": "uint256"
        }
      ],
      "stateMutability": "view",
      "type": "function"
    },
    {
      "inputs": [
        {
          "internalType": "address",
          "name": "account",
          "type": "address"
        },
        {
          "internalType": "uint256",
          "name": "share",
          "type": "uint256"
        },
        {
          "internalType": "bytes32[]",
          "name": "proof",
          "type": "bytes32[]"
        }
      ],
      "name": "verifyShares",
      "outputs": [],
      "stateMutability": "view",
      "type": "function"
    },
    {
      "inputs": [],
      "name": "withdrawAllowed",
      "outputs": [
        {
          "internalType": "bool",
          "name": "",
          "type": "bool"
        }
      ],
      "stateMutability": "view",
      "type": "function"
    },
    {
      "inputs": [
        {
          "internalType": "address",
          "name": "account",
          "type": "address"
        },
        {
          "internalType": "address",
          "name": "asset",
          "type": "address"
        }
      ],
      "name": "withdrawAssets",
      "outputs": [],
      "stateMutability": "nonpayable",
      "type": "function"
    },
    {
      "stateMutability": "payable",
      "type": "receive"
    }
  ],
  "bytecode": "0x608060405234801561001057600080fd5b5060018055611960806100246000396000f3fe6080604052600436106102075760003560e01c80637cbb7d5e11610118578063be8b7686116100a0578063cf3090121161006f578063cf3090121461059f578063d3f32357146105b9578063da4493f6146105d9578063ef5d9ae8146105ef578063fcd4d3ac1461061c57600080fd5b8063be8b768614610529578063c1d8994114610549578063c24e477814610569578063c3a079ed1461058957600080fd5b80638c2e4b09116100e75780638c2e4b09146104b35780639637f475146104c8578063a98acb46146104de578063a9ec3a1b146104fe578063aab2ce791461051457600080fd5b80637cbb7d5e146104425780637dc0d1d01461045757806385e3f997146104775780638abb5d221461049357600080fd5b80634df9cfb31161019b578063717f90921161016a578063717f9092146103d757806375e07c2d146103ed5780637a40624b146104025780637b1837de146104185780637c99ca6d1461042b57600080fd5b80634df9cfb31461036b578063574eab011461038b578063619d5194146103a05780636c4fbc4a146103c057600080fd5b80633e161940116101d75780633e161940146102c057806340bcf748146102d6578063449497281461030e578063452a93201461033357600080fd5b80627c4d511461021f5780630c9cbf0e14610248578063162dfe001461028057806317b9d05e146102a057600080fd5b3661021a5761021834600033610631565b005b600080fd5b34801561022b57600080fd5b5061023560045481565b6040519081526020015b60405180910390f35b34801561025457600080fd5b506102356102633660046114eb565b600d60209081526000928352604080842090915290825290205481565b34801561028c57600080fd5b5061021861029b366004611584565b6106dc565b3480156102ac57600080fd5b506102186102bb366004611714565b61078f565b3480156102cc57600080fd5b5061023560035481565b3480156102e257600080fd5b506102356102f13660046114eb565b600f60209081526000928352604080842090915290825290205481565b34801561031a57600080fd5b50610323610846565b604051901515815260200161023f565b34801561033f57600080fd5b50600a54610353906001600160a01b031681565b6040516001600160a01b03909116815260200161023f565b34801561037757600080fd5b506102356103863660046114d0565b61086c565b34801561039757600080fd5b5061032361089e565b3480156103ac57600080fd5b506102186103bb366004611679565b6108c7565b3480156103cc57600080fd5b506007544210610323565b3480156103e357600080fd5b5061023560095481565b3480156103f957600080fd5b5061023561093a565b34801561040e57600080fd5b5061023560085481565b61021861042636600461151e565b61095b565b34801561043757600080fd5b506007544211610323565b34801561044e57600080fd5b506102186109e9565b34801561046357600080fd5b50600b54610353906001600160a01b031681565b34801561048357600080fd5b50610235670de0b6b3a764000081565b34801561049f57600080fd5b506102186104ae3660046115de565b6109fb565b3480156104bf57600080fd5b50610218610a67565b3480156104d457600080fd5b5061023560065481565b3480156104ea57600080fd5b506102186104f93660046116b3565b610a99565b34801561050a57600080fd5b5061023560055481565b34801561052057600080fd5b50610323610c00565b34801561053557600080fd5b50610235610544366004611548565b610c16565b34801561055557600080fd5b506102356105643660046114d0565b610c79565b34801561057557600080fd5b506102186105843660046114eb565b610d0d565b34801561059557600080fd5b5061023560025481565b3480156105ab57600080fd5b50600e546103239060ff1681565b3480156105c557600080fd5b506102186105d4366004611736565b610dec565b3480156105e557600080fd5b5061023560075481565b3480156105fb57600080fd5b5061023561060a3660046114d0565b600c6020526000908152604090205481565b34801561062857600080fd5b50610218610eec565b6001600160a01b038083166000908152600f60209081526040808320938516835292905290812080548592906106689084906117e7565b90915550506001600160a01b03821615610691576106916001600160a01b038316823086610f18565b604080518481526001600160a01b0384811660208301528316917fa5e8482b3a4fbac393476288e591dd9316d7304a537b26f9b67167f0ce19750f91015b60405180910390a2505050565b60006106e661093a565b6040516bffffffffffffffffffffffff19606088901b1660208201526034810186905290915060009060540160405160208183030381529060405280519060200120905061076a848480806020026020016040519081016040528093929190818152602001838360200280828437600092019190915250869250859150610f899050565b610787576040516309bde33960e01b815260040160405180910390fd5b505050505050565b600b546001600160a01b031633146107ba576040516380fee10560e01b815260040160405180910390fd5b600e5460ff16156107de576040516303cb96db60e21b815260040160405180910390fd5b6107e66109e9565b600680546005558290556002546107fd90426117e7565b6007819055604080518481526020810184905280820192909252517f93d244ac7b8f4282b061b1dcb3f543f36f06af40a7bfdefe04fc913ef7ea54f99181900360600190a15050565b60006004546003546008544261085c9190611832565b61086691906118b0565b10905090565b6001600160a01b0381166000908152600c602052604081205461088e83610c79565b61089891906117e7565b92915050565b600e5460009060ff1680156108b657506108b6610c00565b156108c15750600190565b50600090565b600a546001600160a01b031633146108f257604051636570ecab60e11b815260040160405180910390fd5b600e805460ff19168215159081179091556040519081527f73cb6ff886d89c3816d03270daa43e4789d7c218d9a12960651ff278e1fef1f1906020015b60405180910390a150565b6000610947600754421190565b610952575060055490565b6006545b905090565b600260015414156109b35760405162461bcd60e51b815260206004820152601f60248201527f5265656e7472616e637947756172643a207265656e7472616e742063616c6c0060448201526064015b60405180910390fd5b60026001556001600160a01b0382166109d6576109d1348333610631565b6109e1565b6109e1818333610631565b505060018055565b6109f1610a67565b6109f9610eec565b565b610a07878787876106dc565b60005b60ff8116831115610a5d57610a4b888886868560ff16818110610a2f57610a2f611906565b9050602002016020810190610a4491906114d0565b3386610f9f565b80610a5581611890565b915050610a0a565b5050505050505050565b6000610a74600754421090565b905080610a965760405163ddc07f7160e01b81524260048201526024016109aa565b50565b600054610100900460ff1615808015610ab95750600054600160ff909116105b80610ad35750303b158015610ad3575060005460ff166001145b610b365760405162461bcd60e51b815260206004820152602e60248201527f496e697469616c697a61626c653a20636f6e747261637420697320616c72656160448201526d191e481a5b9a5d1a585b1a5e995960921b60648201526084016109aa565b6000805460ff191660011790558015610b59576000805461ff0019166101001790555b6009889055600a80546001600160a01b03808a166001600160a01b031992831617909255600b80549289169290911691909117905584610b995742610b9b565b845b600755426008556002849055600383905560048290558015610a5d576000805461ff0019169055604051600181527f7f26b83ff96e1f2b6a682f133852f6798a09c465da95921460cefb38474024989060200160405180910390a15050505050505050565b6005546000901580156109565750506006541590565b6001600160a01b038082166000908152600d60209081526040808320938716835292905290812054670de0b6b3a764000084610c518561086c565b610c5b9190611813565b610c6591906117ff565b610c6f9190611832565b90505b9392505050565b60006001600160a01b03821615610d06576040516370a0823160e01b81523060048201526001600160a01b038316906370a082319060240160206040518083038186803b158015610cc957600080fd5b505afa158015610cdd573d6000803e3d6000fd5b505050506040513d601f19601f82011682018060405250810190610d019190611757565b610898565b4792915050565b610d1561089e565b15610dd3576001600160a01b038082166000908152600f602090815260408083209386168352929052205480610d5e57604051635da3252f60e11b815260040160405180910390fd5b6001600160a01b038083166000908152600f60209081526040808320938716835292905290812055610d918382846110b2565b604080518281526001600160a01b0384811660208301528516917f56c54ba9bd38d8fd62012e42c7ee564519b09763c426d331b3661b537ead19b291016106cf565b60405163209a769d60e11b815260040160405180910390fd5b600a546001600160a01b03163314610e1757604051636570ecab60e11b815260040160405180910390fd5b600e5460ff1615610e3b576040516303cb96db60e21b815260040160405180910390fd5b6007544210610e5f57604051633e71b1bf60e11b81524260048201526024016109aa565b60006006556001816002811115610e7857610e786118f0565b1415610e9057600e805460ff19166001179055610ebd565b6002816002811115610ea457610ea46118f0565b1415610ebd57600e805460ff1916600117905560006005555b7f0b700a39eebc9d322d0a5829d3d6447d9e000f73a89a7baa6a0fa28a5ec9c8d08160405161092f919061178c565b6000610ef6610846565b905080610a96576040516303ab46c160e11b81524260048201526024016109aa565b6040516001600160a01b0380851660248301528316604482015260648101829052610f839085906323b872dd60e01b906084015b60408051601f198184030181529190526020810180516001600160e01b03166001600160e01b031990931692909217909152611174565b50505050565b600082610f968584611246565b14949350505050565b6000610fac868686610c16565b6001600160a01b038086166000908152600d60209081526040808320938b16835292905290812080549293508392909190610fe89084906117e7565b90915550506001600160a01b0384166000908152600c6020526040812080548392906110159084906117e7565b90915550506001600160a01b0383811690871614801561103d57506001600160a01b03821615155b156110525761104d8282866110b2565b61105d565b61105d8682866110b2565b60408051868152602081018390526001600160a01b03868116828401529151918816917fb6fe5ce185a3773d47e919f57c7edfd102c91cb7833b2be405c4de89d9980fd79181900360600190a2505050505050565b6001600160a01b03811661115b576000836001600160a01b03168360405160006040518083038185875af1925050503d806000811461110d576040519150601f19603f3d011682016040523d82523d6000602084013e611112565b606091505b5050905080610f835760405162461bcd60e51b8152602060048201526015602482015274195d1a195c881d1c985b9cd9995c8819985a5b1959605a1b60448201526064016109aa565b61116f6001600160a01b0382168484611293565b505050565b60006111c9826040518060400160405280602081526020017f5361666545524332303a206c6f772d6c6576656c2063616c6c206661696c6564815250856001600160a01b03166112c39092919063ffffffff16565b80519091501561116f57808060200190518101906111e79190611696565b61116f5760405162461bcd60e51b815260206004820152602a60248201527f5361666545524332303a204552433230206f7065726174696f6e20646964206e6044820152691bdd081cdd58d8d9595960b21b60648201526084016109aa565b600081815b845181101561128b576112778286838151811061126a5761126a611906565b60200260200101516112d2565b91508061128381611875565b91505061124b565b509392505050565b6040516001600160a01b03831660248201526044810182905261116f90849063a9059cbb60e01b90606401610f4c565b6060610c6f84846000856112fe565b60008183106112ee576000828152602084905260409020610c72565b5060009182526020526040902090565b60608247101561135f5760405162461bcd60e51b815260206004820152602660248201527f416464726573733a20696e73756666696369656e742062616c616e636520666f6044820152651c8818d85b1b60d21b60648201526084016109aa565b6001600160a01b0385163b6113b65760405162461bcd60e51b815260206004820152601d60248201527f416464726573733a2063616c6c20746f206e6f6e2d636f6e747261637400000060448201526064016109aa565b600080866001600160a01b031685876040516113d29190611770565b60006040518083038185875af1925050503d806000811461140f576040519150601f19603f3d011682016040523d82523d6000602084013e611414565b606091505b509150915061142482828661142f565b979650505050505050565b6060831561143e575081610c72565b82511561144e5782518084602001fd5b8160405162461bcd60e51b81526004016109aa91906117b4565b80356001600160a01b038116811461147f57600080fd5b919050565b60008083601f84011261149657600080fd5b50813567ffffffffffffffff8111156114ae57600080fd5b6020830191508360208260051b85010111156114c957600080fd5b9250929050565b6000602082840312156114e257600080fd5b610c7282611468565b600080604083850312156114fe57600080fd5b61150783611468565b915061151560208401611468565b90509250929050565b6000806040838503121561153157600080fd5b61153a83611468565b946020939093013593505050565b60008060006060848603121561155d57600080fd5b61156684611468565b92506020840135915061157b60408501611468565b90509250925092565b6000806000806060858703121561159a57600080fd5b6115a385611468565b935060208501359250604085013567ffffffffffffffff8111156115c657600080fd5b6115d287828801611484565b95989497509550505050565b600080600080600080600060a0888a0312156115f957600080fd5b61160288611468565b965060208801359550604088013567ffffffffffffffff8082111561162657600080fd5b6116328b838c01611484565b909750955060608a013591508082111561164b57600080fd5b506116588a828b01611484565b909450925061166b905060808901611468565b905092959891949750929550565b60006020828403121561168b57600080fd5b8135610c728161191c565b6000602082840312156116a857600080fd5b8151610c728161191c565b600080600080600080600060e0888a0312156116ce57600080fd5b873596506116de60208901611468565b95506116ec60408901611468565b969995985095966060810135965060808101359560a0820135955060c0909101359350915050565b6000806040838503121561172757600080fd5b50508035926020909101359150565b60006020828403121561174857600080fd5b813560038110610c7257600080fd5b60006020828403121561176957600080fd5b5051919050565b60008251611782818460208701611849565b9190910192915050565b60208101600383106117ae57634e487b7160e01b600052602160045260246000fd5b91905290565b60208152600082518060208401526117d3816040850160208701611849565b601f01601f19169190910160400192915050565b600082198211156117fa576117fa6118c4565b500190565b60008261180e5761180e6118da565b500490565b600081600019048311821515161561182d5761182d6118c4565b500290565b600082821015611844576118446118c4565b500390565b60005b8381101561186457818101518382015260200161184c565b83811115610f835750506000910152565b6000600019821415611889576118896118c4565b5060010190565b600060ff821660ff8114156118a7576118a76118c4565b60010192915050565b6000826118bf576118bf6118da565b500690565b634e487b7160e01b600052601160045260246000fd5b634e487b7160e01b600052601260045260246000fd5b634e487b7160e01b600052602160045260246000fd5b634e487b7160e01b600052603260045260246000fd5b8015158114610a9657600080fdfea2646970667358221220d897373a2e9e9057c618636738d5987750ff3cfbc88991fbb6a74e6407176b3e64736f6c63430008060033",
  "linkReferences": {},
  "deployedLinkReferences": {}
}