{
  "_format": "hh-sol-artifact-1",
  "contractName": "Campaign",
  "sourceName": "contracts/Campaign.sol",
  "abi": [
    {
      "inputs": [],
      "name": "ActiveChallengePeriod",
      "type": "error"
    },
    {
      "inputs": [],
      "name": "ClaimingNotAllowed",
      "type": "error"
    },
    {
      "inputs": [],
      "name": "InvalidProof",
      "type": "error"
    },
    {
      "inputs": [],
      "name": "Locked",
      "type": "error"
    },
    {
      "inputs": [],
      "name": "NoFunds",
      "type": "error"
    },
    {
      "inputs": [],
      "name": "NoRewardAvailable",
      "type": "error"
    },
    {
      "inputs": [],
      "name": "OnlyGuardian",
      "type": "error"
    },
    {
      "inputs": [],
      "name": "OnlyInChallengePeriod",
      "type": "error"
    },
    {
      "inputs": [],
      "name": "OnlyOracle",
      "type": "error"
    },
    {
      "inputs": [],
      "name": "WithdrawalNotAllowed",
      "type": "error"
    },
    {
      "anonymous": false,
      "inputs": [
        {
          "indexed": false,
          "internalType": "enum Campaign.ChallengeAction",
          "name": "action",
          "type": "uint8"
        }
      ],
      "name": "Challenge",
      "type": "event"
    },
    {
      "anonymous": false,
      "inputs": [
        {
          "indexed": false,
          "internalType": "address",
          "name": "account",
          "type": "address"
        },
        {
          "indexed": false,
          "internalType": "uint256",
          "name": "share",
          "type": "uint256"
        },
        {
          "indexed": false,
          "internalType": "uint256",
          "name": "reward",
          "type": "uint256"
        },
        {
          "indexed": false,
          "internalType": "address",
          "name": "assset",
          "type": "address"
        }
      ],
      "name": "Claim",
      "type": "event"
    },
    {
      "anonymous": false,
      "inputs": [
        {
          "indexed": false,
          "internalType": "address",
          "name": "provider",
          "type": "address"
        },
        {
          "indexed": false,
          "internalType": "uint256",
          "name": "amount",
          "type": "uint256"
        },
        {
          "indexed": false,
          "internalType": "address",
          "name": "asset",
          "type": "address"
        }
      ],
      "name": "Fund",
      "type": "event"
    },
    {
      "anonymous": false,
      "inputs": [
        {
          "indexed": false,
          "internalType": "uint8",
          "name": "version",
          "type": "uint8"
        }
      ],
      "name": "Initialized",
      "type": "event"
    },
    {
      "anonymous": false,
      "inputs": [
        {
          "indexed": false,
          "internalType": "bytes32",
          "name": "sharesMerkleRoot",
          "type": "bytes32"
        },
        {
          "indexed": false,
          "internalType": "bytes32",
          "name": "sharesUri",
          "type": "bytes32"
        },
        {
          "indexed": false,
          "internalType": "uint256",
          "name": "activationTime",
          "type": "uint256"
        }
      ],
      "name": "SharesMerkleRoot",
      "type": "event"
    },
    {
      "anonymous": false,
      "inputs": [
        {
          "indexed": false,
          "internalType": "address",
          "name": "account",
          "type": "address"
        },
        {
          "indexed": false,
          "internalType": "uint256",
          "name": "amount",
          "type": "uint256"
        },
        {
          "indexed": false,
          "internalType": "address",
          "name": "asset",
          "type": "address"
        }
      ],
      "name": "Withdraw",
      "type": "event"
    },
    {
      "inputs": [],
      "name": "CHALLENGE_PERIOD",
      "outputs": [
        {
          "internalType": "uint256",
          "name": "",
          "type": "uint256"
        }
      ],
      "stateMutability": "view",
      "type": "function"
    },
    {
      "inputs": [],
      "name": "TOTAL_SHARES",
      "outputs": [
        {
          "internalType": "uint256",
          "name": "",
          "type": "uint256"
        }
      ],
      "stateMutability": "view",
      "type": "function"
    },
    {
      "inputs": [],
      "name": "activationTime",
      "outputs": [
        {
          "internalType": "uint256",
          "name": "",
          "type": "uint256"
        }
      ],
      "stateMutability": "view",
      "type": "function"
    },
    {
      "inputs": [],
      "name": "approvedMerkleRoot",
      "outputs": [
        {
          "internalType": "bytes32",
          "name": "",
          "type": "bytes32"
        }
      ],
      "stateMutability": "view",
      "type": "function"
    },
    {
      "inputs": [
        {
          "internalType": "address",
          "name": "asset",
          "type": "address"
        }
      ],
      "name": "balanceOfAsset",
      "outputs": [
        {
          "internalType": "uint256",
          "name": "",
          "type": "uint256"
        }
      ],
      "stateMutability": "view",
      "type": "function"
    },
    {
      "inputs": [
        {
          "internalType": "enum Campaign.ChallengeAction",
          "name": "action",
          "type": "uint8"
        }
      ],
      "name": "challenge",
      "outputs": [],
      "stateMutability": "nonpayable",
      "type": "function"
    },
    {
      "inputs": [
        {
          "internalType": "address",
          "name": "account",
          "type": "address"
        },
        {
          "internalType": "uint256",
          "name": "share",
          "type": "uint256"
        },
        {
          "internalType": "bytes32[]",
          "name": "proof",
          "type": "bytes32[]"
        },
        {
          "internalType": "address",
          "name": "asset",
          "type": "address"
        }
      ],
      "name": "claim",
      "outputs": [],
      "stateMutability": "nonpayable",
      "type": "function"
    },
    {
      "inputs": [
        {
          "internalType": "address",
          "name": "",
          "type": "address"
        },
        {
          "internalType": "address",
          "name": "",
          "type": "address"
        }
      ],
      "name": "claimed",
      "outputs": [
        {
          "internalType": "uint256",
          "name": "",
          "type": "uint256"
        }
      ],
      "stateMutability": "view",
      "type": "function"
    },
    {
      "inputs": [
        {
          "internalType": "address",
          "name": "asset",
          "type": "address"
        }
      ],
      "name": "convertToReward",
      "outputs": [],
      "stateMutability": "nonpayable",
      "type": "function"
    },
    {
      "inputs": [
        {
          "internalType": "address",
          "name": "asset",
          "type": "address"
        },
        {
          "internalType": "uint256",
          "name": "amount",
          "type": "uint256"
        }
      ],
      "name": "fund",
      "outputs": [],
      "stateMutability": "payable",
      "type": "function"
    },
    {
      "inputs": [],
      "name": "getValidRoot",
      "outputs": [
        {
          "internalType": "bytes32",
          "name": "root",
          "type": "bytes32"
        }
      ],
      "stateMutability": "view",
      "type": "function"
    },
    {
      "inputs": [],
      "name": "guardian",
      "outputs": [
        {
          "internalType": "address",
          "name": "",
          "type": "address"
        }
      ],
      "stateMutability": "view",
      "type": "function"
    },
    {
      "inputs": [
        {
          "internalType": "bytes32",
          "name": "_sharesMerkleRoot",
          "type": "bytes32"
        },
        {
          "internalType": "bytes32",
          "name": "_strategyUri",
          "type": "bytes32"
        },
        {
          "internalType": "address",
          "name": "_guardian",
          "type": "address"
        },
        {
          "internalType": "address",
          "name": "_oracle",
          "type": "address"
        }
      ],
      "name": "initCampaign",
      "outputs": [],
      "stateMutability": "nonpayable",
      "type": "function"
    },
    {
      "inputs": [],
      "name": "isRootActive",
      "outputs": [
        {
          "internalType": "bool",
          "name": "",
          "type": "bool"
        }
      ],
      "stateMutability": "view",
      "type": "function"
    },
    {
      "inputs": [],
      "name": "locked",
      "outputs": [
        {
          "internalType": "bool",
          "name": "",
          "type": "bool"
        }
      ],
      "stateMutability": "view",
      "type": "function"
    },
    {
      "inputs": [],
      "name": "oracle",
      "outputs": [
        {
          "internalType": "address",
          "name": "",
          "type": "address"
        }
      ],
      "stateMutability": "view",
      "type": "function"
    },
    {
      "inputs": [],
      "name": "pendingMerkleRoot",
      "outputs": [
        {
          "internalType": "bytes32",
          "name": "",
          "type": "bytes32"
        }
      ],
      "stateMutability": "view",
      "type": "function"
    },
    {
      "inputs": [
        {
          "internalType": "bytes32",
          "name": "_sharesMerkleRoot",
          "type": "bytes32"
        },
        {
          "internalType": "bytes32",
          "name": "_sharesUri",
          "type": "bytes32"
        }
      ],
      "name": "proposeShares",
      "outputs": [],
      "stateMutability": "nonpayable",
      "type": "function"
    },
    {
      "inputs": [
        {
          "internalType": "address",
          "name": "",
          "type": "address"
        },
        {
          "internalType": "address",
          "name": "",
          "type": "address"
        }
      ],
      "name": "providers",
      "outputs": [
        {
          "internalType": "uint256",
          "name": "",
          "type": "uint256"
        }
      ],
      "stateMutability": "view",
      "type": "function"
    },
    {
      "inputs": [
        {
          "internalType": "address",
          "name": "account",
          "type": "address"
        },
        {
          "internalType": "uint256",
          "name": "share",
          "type": "uint256"
        },
        {
          "internalType": "address",
          "name": "asset",
          "type": "address"
        }
      ],
      "name": "rewardsAvailableToClaimer",
      "outputs": [
        {
          "internalType": "uint256",
          "name": "total",
          "type": "uint256"
        }
      ],
      "stateMutability": "view",
      "type": "function"
    },
    {
      "inputs": [
        {
          "internalType": "bool",
          "name": "_lock",
          "type": "bool"
        }
      ],
      "name": "setLock",
      "outputs": [],
      "stateMutability": "nonpayable",
      "type": "function"
    },
    {
      "inputs": [],
      "name": "strategyUri",
      "outputs": [
        {
          "internalType": "bytes32",
          "name": "",
          "type": "bytes32"
        }
      ],
      "stateMutability": "view",
      "type": "function"
    },
    {
      "inputs": [
        {
          "internalType": "address",
          "name": "",
          "type": "address"
        }
      ],
      "name": "totalClaimed",
      "outputs": [
        {
          "internalType": "uint256",
          "name": "",
          "type": "uint256"
        }
      ],
      "stateMutability": "view",
      "type": "function"
    },
    {
      "inputs": [
        {
          "internalType": "address",
          "name": "asset",
          "type": "address"
        }
      ],
      "name": "totalFundsReceived",
      "outputs": [
        {
          "internalType": "uint256",
          "name": "total",
          "type": "uint256"
        }
      ],
      "stateMutability": "view",
      "type": "function"
    },
    {
      "inputs": [
        {
          "internalType": "address",
          "name": "",
          "type": "address"
        }
      ],
      "name": "totalReward",
      "outputs": [
        {
          "internalType": "uint256",
          "name": "",
          "type": "uint256"
        }
      ],
      "stateMutability": "view",
      "type": "function"
    },
    {
      "inputs": [
        {
          "internalType": "address",
          "name": "account",
          "type": "address"
        },
        {
          "internalType": "uint256",
          "name": "share",
          "type": "uint256"
        },
        {
          "internalType": "bytes32[]",
          "name": "proof",
          "type": "bytes32[]"
        }
      ],
      "name": "verifyShares",
      "outputs": [],
      "stateMutability": "view",
      "type": "function"
    },
    {
      "inputs": [
        {
          "internalType": "address",
          "name": "account",
          "type": "address"
        },
        {
          "internalType": "address",
          "name": "asset",
          "type": "address"
        }
      ],
      "name": "withdrawFunds",
      "outputs": [],
      "stateMutability": "nonpayable",
      "type": "function"
    },
    {
      "stateMutability": "payable",
      "type": "receive"
    }
  ],
  "bytecode": "0x608060405234801561001057600080fd5b5061175f806100206000396000f3fe60806040526004361061019f5760003560e01c80637b1837de116100ec578063be8b76861161008a578063cf30901211610064578063cf309012146104bf578063d3f32357146104d9578063da4493f6146104f9578063ef5d9ae81461050f57600080fd5b8063be8b768614610468578063c1d8994114610488578063c3a079ed146104a857600080fd5b806385e3f997116100c657806385e3f997146103f35780639637f4751461040f57806399908f7414610425578063a9ec3a1b1461045257600080fd5b80637b1837de146103a05780637dc0d1d0146103b3578063859285a2146103d357600080fd5b806317b9d05e11610159578063452a932011610133578063452a93201461031d578063619d519414610355578063717f90921461037557806375e07c2d1461038b57600080fd5b806317b9d05e146102a557806340bcf748146102c5578063414f33dd146102fd57600080fd5b80620fa9fb146101b757806301ab86ec146101d75780630b04b8d7146101ff5780630c9cbf0e1461021f578063162dfe001461026557806316ccc1331461028557600080fd5b366101b2576101b03460003361053c565b005b600080fd5b3480156101c357600080fd5b506101b06101d236600461131c565b61061d565b3480156101e357600080fd5b5060035442115b60405190151581526020015b60405180910390f35b34801561020b57600080fd5b506101b061021a36600461140f565b61072a565b34801561022b57600080fd5b5061025761023a36600461131c565b600a60209081526000928352604080842090915290825290205481565b6040519081526020016101f6565b34801561027157600080fd5b506101b06102803660046113b5565b61085e565b34801561029157600080fd5b506102576102a0366004611301565b610911565b3480156102b157600080fd5b506101b06102c03660046114b8565b610945565b3480156102d157600080fd5b506102576102e036600461131c565b600b60209081526000928352604080842090915290825290205481565b34801561030957600080fd5b506101b06103183660046114da565b610a24565b34801561032957600080fd5b5060055461033d906001600160a01b031681565b6040516001600160a01b0390911681526020016101f6565b34801561036157600080fd5b506101b061037036600461147e565b610af1565b34801561038157600080fd5b5061025760045481565b34801561039757600080fd5b50610257610b2f565b6101b06103ae36600461134f565b610b4e565b3480156103bf57600080fd5b5060065461033d906001600160a01b031681565b3480156103df57600080fd5b506101b06103ee366004611301565b610b72565b3480156103ff57600080fd5b50610257670de0b6b3a764000081565b34801561041b57600080fd5b5061025760025481565b34801561043157600080fd5b50610257610440366004611301565b60076020526000908152604090205481565b34801561045e57600080fd5b5061025760015481565b34801561047457600080fd5b50610257610483366004611379565b610b9d565b34801561049457600080fd5b506102576104a3366004611301565b610c00565b3480156104b457600080fd5b5061025762093a8081565b3480156104cb57600080fd5b506009546101ea9060ff1681565b3480156104e557600080fd5b506101b06104f4366004611520565b610c94565b34801561050557600080fd5b5061025760035481565b34801561051b57600080fd5b5061025761052a366004611301565b60086020526000908152604090205481565b6001600160a01b038083166000908152600b602090815260408083209385168352929052908120805485929061057390849061161f565b90915550506001600160a01b038216600090815260076020526040812080548592906105a090849061161f565b90915550506001600160a01b038216156105c9576105c96001600160a01b038316823086610e39565b604080516001600160a01b038084168252602082018690528416918101919091527fa5e8482b3a4fbac393476288e591dd9316d7304a537b26f9b67167f0ce19750f906060015b60405180910390a1505050565b60095460ff16801561062f5750600154155b1561070d576001600160a01b03808216600090815260076020908152604080832054600b8352818420948716845293909152812054909161066f91611637565b90508061068f5760405163043f9e1160e41b815260040160405180910390fd5b6001600160a01b038083166000908152600b602090815260408083209387168352929052908120556106c2838284610eaa565b604080516001600160a01b038086168252602082018490528416918101919091527f56c54ba9bd38d8fd62012e42c7ee564519b09763c426d331b3661b537ead19b290606001610610565b60405163209a769d60e11b815260040160405180910390fd5b5050565b6107368585858561085e565b6000610743868684610b9d565b90508061076357604051636d363c4560e01b815260040160405180910390fd5b6001600160a01b038083166000908152600a60209081526040808320938a168352929052908120805483929061079a90849061161f565b90915550506001600160a01b038216600090815260086020526040812080548392906107c790849061161f565b90915550506001600160a01b038216600090815260076020526040812080548392906107f4908490611678565b909155506108059050868284610eaa565b604080516001600160a01b038881168252602082018890528183018490528416606082015290517fb6fe5ce185a3773d47e919f57c7edfd102c91cb7833b2be405c4de89d9980fd79181900360800190a1505050505050565b6000610868610b2f565b6040516bffffffffffffffffffffffff19606088901b166020820152603481018690529091506000906054016040516020818303038152906040528051906020012090506108ec848480806020026020016040519081016040528093929190818152602001838360200280828437600092019190915250869250859150610f719050565b610909576040516309bde33960e01b815260040160405180910390fd5b505050505050565b6001600160a01b038116600090815260086020908152604080832054600790925282205461093f919061161f565b92915050565b6006546001600160a01b03163314610970576040516380fee10560e01b815260040160405180910390fd5b60095460ff1615610994576040516303cb96db60e21b815260040160405180910390fd5b600254158015906109a6575060035442105b156109c457604051633420251360e11b815260040160405180910390fd5b600280546001558290556109db62093a804261161f565b6003819055604080518481526020810184905280820192909252517ff538af40d5ad77456cbcd96a5be317d724e66e0e08eb217c14812308bd43d35e9181900360600190a15050565b6000610a306001610f87565b90508015610a48576000805461ff0019166101001790555b6004849055600580546001600160a01b038086166001600160a01b03199283161790925560068054928516929091169190911790558415610a9d576002859055610a9562093a804261161f565b600355610aa4565b6000196003555b8015610aea576000805461ff0019169055604051600181527f7f26b83ff96e1f2b6a682f133852f6798a09c465da95921460cefb38474024989060200160405180910390a15b5050505050565b6005546001600160a01b03163314610b1c57604051636570ecab60e11b815260040160405180910390fd5b6009805460ff1916911515919091179055565b6000610b3c600354421190565b610b47575060015490565b5060025490565b6001600160a01b038216610b675761072634833361053c565b61072681833361053c565b6000610b7d82610c00565b610b8683610911565b610b909190611678565b905061072681833061053c565b6001600160a01b038082166000908152600a60209081526040808320938716835292905290812054670de0b6b3a764000084610bd885610911565b610be29190611659565b610bec9190611637565b610bf69190611678565b90505b9392505050565b60006001600160a01b03821615610c8d576040516370a0823160e01b81523060048201526001600160a01b038316906370a082319060240160206040518083038186803b158015610c5057600080fd5b505afa158015610c64573d6000803e3d6000fd5b505050506040513d601f19601f82011682018060405250810190610c889190611541565b61093f565b4792915050565b6005546001600160a01b03163314610cbf57604051636570ecab60e11b815260040160405180910390fd5b60095460ff1615610ce3576040516303cb96db60e21b815260040160405180910390fd5b60025415801590610cf5575060035442115b15610d1357604051631b69dd1760e21b815260040160405180910390fd5b60006002556000196003556001816002811115610d3257610d326116ec565b1415610d8e57604051631867546560e21b815260016004820152309063619d519490602401600060405180830381600087803b158015610d7157600080fd5b505af1158015610d85573d6000803e3d6000fd5b50505050610dff565b6002816002811115610da257610da26116ec565b1415610dff57604051631867546560e21b815260016004820152309063619d519490602401600060405180830381600087803b158015610de157600080fd5b505af1158015610df5573d6000803e3d6000fd5b5050600060015550505b7f0b700a39eebc9d322d0a5829d3d6447d9e000f73a89a7baa6a0fa28a5ec9c8d081604051610e2e9190611576565b60405180910390a150565b6040516001600160a01b0380851660248301528316604482015260648101829052610ea49085906323b872dd60e01b906084015b60408051601f198184030181529190526020810180516001600160e01b03166001600160e01b031990931692909217909152611014565b50505050565b6001600160a01b038116610f58576000836001600160a01b03168360405160006040518083038185875af1925050503d8060008114610f05576040519150601f19603f3d011682016040523d82523d6000602084013e610f0a565b606091505b5050905080610ea45760405162461bcd60e51b8152602060048201526015602482015274195d1a195c881d1c985b9cd9995c8819985a5b1959605a1b60448201526064015b60405180910390fd5b610f6c6001600160a01b03821684846110e6565b505050565b600082610f7e8584611116565b14949350505050565b60008054610100900460ff1615610fce578160ff166001148015610faa5750303b155b610fc65760405162461bcd60e51b8152600401610f4f906115d1565b506000919050565b60005460ff808416911610610ff55760405162461bcd60e51b8152600401610f4f906115d1565b506000805460ff191660ff92909216919091179055600190565b919050565b6000611069826040518060400160405280602081526020017f5361666545524332303a206c6f772d6c6576656c2063616c6c206661696c6564815250856001600160a01b031661118a9092919063ffffffff16565b805190915015610f6c5780806020019051810190611087919061149b565b610f6c5760405162461bcd60e51b815260206004820152602a60248201527f5361666545524332303a204552433230206f7065726174696f6e20646964206e6044820152691bdd081cdd58d8d9595960b21b6064820152608401610f4f565b6040516001600160a01b038316602482015260448101829052610f6c90849063a9059cbb60e01b90606401610e6d565b600081815b845181101561118257600085828151811061113857611138611702565b6020026020010151905080831161115e576000838152602082905260409020925061116f565b600081815260208490526040902092505b508061117a816116bb565b91505061111b565b509392505050565b6060610bf68484600085856001600160a01b0385163b6111ec5760405162461bcd60e51b815260206004820152601d60248201527f416464726573733a2063616c6c20746f206e6f6e2d636f6e74726163740000006044820152606401610f4f565b600080866001600160a01b03168587604051611208919061155a565b60006040518083038185875af1925050503d8060008114611245576040519150601f19603f3d011682016040523d82523d6000602084013e61124a565b606091505b509150915061125a828286611265565b979650505050505050565b60608315611274575081610bf9565b8251156112845782518084602001fd5b8160405162461bcd60e51b8152600401610f4f919061159e565b80356001600160a01b038116811461100f57600080fd5b60008083601f8401126112c757600080fd5b50813567ffffffffffffffff8111156112df57600080fd5b6020830191508360208260051b85010111156112fa57600080fd5b9250929050565b60006020828403121561131357600080fd5b610bf98261129e565b6000806040838503121561132f57600080fd5b6113388361129e565b91506113466020840161129e565b90509250929050565b6000806040838503121561136257600080fd5b61136b8361129e565b946020939093013593505050565b60008060006060848603121561138e57600080fd5b6113978461129e565b9250602084013591506113ac6040850161129e565b90509250925092565b600080600080606085870312156113cb57600080fd5b6113d48561129e565b935060208501359250604085013567ffffffffffffffff8111156113f757600080fd5b611403878288016112b5565b95989497509550505050565b60008060008060006080868803121561142757600080fd5b6114308661129e565b945060208601359350604086013567ffffffffffffffff81111561145357600080fd5b61145f888289016112b5565b909450925061147290506060870161129e565b90509295509295909350565b60006020828403121561149057600080fd5b8135610bf981611718565b6000602082840312156114ad57600080fd5b8151610bf981611718565b600080604083850312156114cb57600080fd5b50508035926020909101359150565b600080600080608085870312156114f057600080fd5b84359350602085013592506115076040860161129e565b91506115156060860161129e565b905092959194509250565b60006020828403121561153257600080fd5b813560038110610bf957600080fd5b60006020828403121561155357600080fd5b5051919050565b6000825161156c81846020870161168f565b9190910192915050565b602081016003831061159857634e487b7160e01b600052602160045260246000fd5b91905290565b60208152600082518060208401526115bd81604085016020870161168f565b601f01601f19169190910160400192915050565b6020808252602e908201527f496e697469616c697a61626c653a20636f6e747261637420697320616c72656160408201526d191e481a5b9a5d1a585b1a5e995960921b606082015260800190565b60008219821115611632576116326116d6565b500190565b60008261165457634e487b7160e01b600052601260045260246000fd5b500490565b6000816000190483118215151615611673576116736116d6565b500290565b60008282101561168a5761168a6116d6565b500390565b60005b838110156116aa578181015183820152602001611692565b83811115610ea45750506000910152565b60006000198214156116cf576116cf6116d6565b5060010190565b634e487b7160e01b600052601160045260246000fd5b634e487b7160e01b600052602160045260246000fd5b634e487b7160e01b600052603260045260246000fd5b801515811461172657600080fd5b5056fea26469706673582212206af33f9153ef988621b2eb629e18f76a2799d74fab62960da0a6b85a33eb714964736f6c63430008060033",
  "linkReferences": {},
  "deployedLinkReferences": {}
}