{
  "_format": "hh-sol-artifact-1",
  "contractName": "Campaign",
  "sourceName": "contracts/Campaign.sol",
  "abi": [
    {
      "inputs": [],
      "name": "ActiveChallengePeriod",
      "type": "error"
    },
    {
      "inputs": [],
      "name": "ClaimingNotAllowed",
      "type": "error"
    },
    {
      "inputs": [],
      "name": "InvalidProof",
      "type": "error"
    },
    {
      "inputs": [],
      "name": "Locked",
      "type": "error"
    },
    {
      "inputs": [],
      "name": "NoFunds",
      "type": "error"
    },
    {
      "inputs": [],
      "name": "NoRewardAvailable",
      "type": "error"
    },
    {
      "inputs": [],
      "name": "OnlyGuardian",
      "type": "error"
    },
    {
      "inputs": [],
      "name": "OnlyInChallengePeriod",
      "type": "error"
    },
    {
      "inputs": [],
      "name": "OnlyOracle",
      "type": "error"
    },
    {
      "inputs": [],
      "name": "WithdrawalNotAllowed",
      "type": "error"
    },
    {
      "anonymous": false,
      "inputs": [
        {
          "indexed": false,
          "internalType": "enum Campaign.ChallengeAction",
          "name": "action",
          "type": "uint8"
        }
      ],
      "name": "Challenge",
      "type": "event"
    },
    {
      "anonymous": false,
      "inputs": [
        {
          "indexed": false,
          "internalType": "address",
          "name": "account",
          "type": "address"
        },
        {
          "indexed": false,
          "internalType": "uint256",
          "name": "share",
          "type": "uint256"
        },
        {
          "indexed": false,
          "internalType": "uint256",
          "name": "reward",
          "type": "uint256"
        },
        {
          "indexed": false,
          "internalType": "address",
          "name": "assset",
          "type": "address"
        }
      ],
      "name": "Claim",
      "type": "event"
    },
    {
      "anonymous": false,
      "inputs": [
        {
          "indexed": false,
          "internalType": "address",
          "name": "provider",
          "type": "address"
        },
        {
          "indexed": false,
          "internalType": "uint256",
          "name": "amount",
          "type": "uint256"
        },
        {
          "indexed": false,
          "internalType": "address",
          "name": "asset",
          "type": "address"
        }
      ],
      "name": "Fund",
      "type": "event"
    },
    {
      "anonymous": false,
      "inputs": [
        {
          "indexed": false,
          "internalType": "uint8",
          "name": "version",
          "type": "uint8"
        }
      ],
      "name": "Initialized",
      "type": "event"
    },
    {
      "anonymous": false,
      "inputs": [
        {
          "indexed": false,
          "internalType": "bytes32",
          "name": "sharesMerkleRoot",
          "type": "bytes32"
        },
        {
          "indexed": false,
          "internalType": "bytes32",
          "name": "sharesUri",
          "type": "bytes32"
        },
        {
          "indexed": false,
          "internalType": "uint256",
          "name": "activationTime",
          "type": "uint256"
        }
      ],
      "name": "SharesMerkleRoot",
      "type": "event"
    },
    {
      "anonymous": false,
      "inputs": [
        {
          "indexed": false,
          "internalType": "address",
          "name": "account",
          "type": "address"
        },
        {
          "indexed": false,
          "internalType": "uint256",
          "name": "amount",
          "type": "uint256"
        },
        {
          "indexed": false,
          "internalType": "address",
          "name": "asset",
          "type": "address"
        }
      ],
      "name": "Withdraw",
      "type": "event"
    },
    {
      "inputs": [],
      "name": "CHALLENGE_PERIOD",
      "outputs": [
        {
          "internalType": "uint256",
          "name": "",
          "type": "uint256"
        }
      ],
      "stateMutability": "view",
      "type": "function"
    },
    {
      "inputs": [],
      "name": "TOTAL_SHARES",
      "outputs": [
        {
          "internalType": "uint256",
          "name": "",
          "type": "uint256"
        }
      ],
      "stateMutability": "view",
      "type": "function"
    },
    {
      "inputs": [],
      "name": "activationTime",
      "outputs": [
        {
          "internalType": "uint256",
          "name": "",
          "type": "uint256"
        }
      ],
      "stateMutability": "view",
      "type": "function"
    },
    {
      "inputs": [],
      "name": "approvedMerkleRoot",
      "outputs": [
        {
          "internalType": "bytes32",
          "name": "",
          "type": "bytes32"
        }
      ],
      "stateMutability": "view",
      "type": "function"
    },
    {
      "inputs": [
        {
          "internalType": "address",
          "name": "asset",
          "type": "address"
        }
      ],
      "name": "balanceOfAsset",
      "outputs": [
        {
          "internalType": "uint256",
          "name": "",
          "type": "uint256"
        }
      ],
      "stateMutability": "view",
      "type": "function"
    },
    {
      "inputs": [
        {
          "internalType": "enum Campaign.ChallengeAction",
          "name": "action",
          "type": "uint8"
        }
      ],
      "name": "challenge",
      "outputs": [],
      "stateMutability": "nonpayable",
      "type": "function"
    },
    {
      "inputs": [
        {
          "internalType": "address",
          "name": "account",
          "type": "address"
        },
        {
          "internalType": "uint256",
          "name": "share",
          "type": "uint256"
        },
        {
          "internalType": "bytes32[]",
          "name": "proof",
          "type": "bytes32[]"
        },
        {
          "internalType": "address",
          "name": "asset",
          "type": "address"
        }
      ],
      "name": "claim",
      "outputs": [],
      "stateMutability": "nonpayable",
      "type": "function"
    },
    {
      "inputs": [
        {
          "internalType": "address",
          "name": "",
          "type": "address"
        },
        {
          "internalType": "address",
          "name": "",
          "type": "address"
        }
      ],
      "name": "claimed",
      "outputs": [
        {
          "internalType": "uint256",
          "name": "",
          "type": "uint256"
        }
      ],
      "stateMutability": "view",
      "type": "function"
    },
    {
      "inputs": [
        {
          "internalType": "address",
          "name": "asset",
          "type": "address"
        }
      ],
      "name": "convertToReward",
      "outputs": [],
      "stateMutability": "nonpayable",
      "type": "function"
    },
    {
      "inputs": [
        {
          "internalType": "address",
          "name": "asset",
          "type": "address"
        },
        {
          "internalType": "uint256",
          "name": "amount",
          "type": "uint256"
        }
      ],
      "name": "fund",
      "outputs": [],
      "stateMutability": "payable",
      "type": "function"
    },
    {
      "inputs": [],
      "name": "getValidRoot",
      "outputs": [
        {
          "internalType": "bytes32",
          "name": "root",
          "type": "bytes32"
        }
      ],
      "stateMutability": "view",
      "type": "function"
    },
    {
      "inputs": [],
      "name": "guardian",
      "outputs": [
        {
          "internalType": "address",
          "name": "",
          "type": "address"
        }
      ],
      "stateMutability": "view",
      "type": "function"
    },
    {
      "inputs": [
        {
          "internalType": "bytes32",
          "name": "_sharesMerkleRoot",
          "type": "bytes32"
        },
        {
          "internalType": "bytes32",
          "name": "_strategyUri",
          "type": "bytes32"
        },
        {
          "internalType": "address",
          "name": "_guardian",
          "type": "address"
        },
        {
          "internalType": "address",
          "name": "_oracle",
          "type": "address"
        }
      ],
      "name": "initCampaign",
      "outputs": [],
      "stateMutability": "nonpayable",
      "type": "function"
    },
    {
      "inputs": [],
      "name": "locked",
      "outputs": [
        {
          "internalType": "bool",
          "name": "",
          "type": "bool"
        }
      ],
      "stateMutability": "view",
      "type": "function"
    },
    {
      "inputs": [],
      "name": "oracle",
      "outputs": [
        {
          "internalType": "address",
          "name": "",
          "type": "address"
        }
      ],
      "stateMutability": "view",
      "type": "function"
    },
    {
      "inputs": [],
      "name": "pendingMerkleRoot",
      "outputs": [
        {
          "internalType": "bytes32",
          "name": "",
          "type": "bytes32"
        }
      ],
      "stateMutability": "view",
      "type": "function"
    },
    {
      "inputs": [
        {
          "internalType": "bytes32",
          "name": "_sharesMerkleRoot",
          "type": "bytes32"
        },
        {
          "internalType": "bytes32",
          "name": "_sharesUri",
          "type": "bytes32"
        }
      ],
      "name": "proposeShares",
      "outputs": [],
      "stateMutability": "nonpayable",
      "type": "function"
    },
    {
      "inputs": [
        {
          "internalType": "address",
          "name": "",
          "type": "address"
        },
        {
          "internalType": "address",
          "name": "",
          "type": "address"
        }
      ],
      "name": "providers",
      "outputs": [
        {
          "internalType": "uint256",
          "name": "",
          "type": "uint256"
        }
      ],
      "stateMutability": "view",
      "type": "function"
    },
    {
      "inputs": [
        {
          "internalType": "address",
          "name": "account",
          "type": "address"
        },
        {
          "internalType": "uint256",
          "name": "share",
          "type": "uint256"
        },
        {
          "internalType": "address",
          "name": "asset",
          "type": "address"
        }
      ],
      "name": "rewardsAvailableToClaimer",
      "outputs": [
        {
          "internalType": "uint256",
          "name": "total",
          "type": "uint256"
        }
      ],
      "stateMutability": "view",
      "type": "function"
    },
    {
      "inputs": [
        {
          "internalType": "bool",
          "name": "_lock",
          "type": "bool"
        }
      ],
      "name": "setLock",
      "outputs": [],
      "stateMutability": "nonpayable",
      "type": "function"
    },
    {
      "inputs": [],
      "name": "strategyUri",
      "outputs": [
        {
          "internalType": "bytes32",
          "name": "",
          "type": "bytes32"
        }
      ],
      "stateMutability": "view",
      "type": "function"
    },
    {
      "inputs": [
        {
          "internalType": "address",
          "name": "",
          "type": "address"
        }
      ],
      "name": "totalClaimed",
      "outputs": [
        {
          "internalType": "uint256",
          "name": "",
          "type": "uint256"
        }
      ],
      "stateMutability": "view",
      "type": "function"
    },
    {
      "inputs": [
        {
          "internalType": "address",
          "name": "asset",
          "type": "address"
        }
      ],
      "name": "totalFundsReceived",
      "outputs": [
        {
          "internalType": "uint256",
          "name": "total",
          "type": "uint256"
        }
      ],
      "stateMutability": "view",
      "type": "function"
    },
    {
      "inputs": [
        {
          "internalType": "address",
          "name": "",
          "type": "address"
        }
      ],
      "name": "totalReward",
      "outputs": [
        {
          "internalType": "uint256",
          "name": "",
          "type": "uint256"
        }
      ],
      "stateMutability": "view",
      "type": "function"
    },
    {
      "inputs": [
        {
          "internalType": "address",
          "name": "account",
          "type": "address"
        },
        {
          "internalType": "uint256",
          "name": "share",
          "type": "uint256"
        },
        {
          "internalType": "bytes32[]",
          "name": "proof",
          "type": "bytes32[]"
        }
      ],
      "name": "verifyShares",
      "outputs": [],
      "stateMutability": "view",
      "type": "function"
    },
    {
      "inputs": [
        {
          "internalType": "address",
          "name": "account",
          "type": "address"
        },
        {
          "internalType": "address",
          "name": "asset",
          "type": "address"
        }
      ],
      "name": "withdrawFunds",
      "outputs": [],
      "stateMutability": "nonpayable",
      "type": "function"
    },
    {
      "stateMutability": "payable",
      "type": "receive"
    }
  ],
  "bytecode": "0x608060405234801561001057600080fd5b5061172b806100206000396000f3fe6080604052600436106101845760003560e01c80637dc0d1d0116100d1578063be8b76861161008a578063cf30901211610064578063cf30901214610481578063d3f32357146104ab578063da4493f6146104cb578063ef5d9ae8146104e157600080fd5b8063be8b76861461042a578063c1d899411461044a578063c3a079ed1461046a57600080fd5b80637dc0d1d014610375578063859285a21461039557806385e3f997146103b55780639637f475146103d157806399908f74146103e7578063a9ec3a1b1461041457600080fd5b806340bcf7481161013e578063619d519411610118578063619d519414610317578063717f90921461033757806375e07c2d1461034d5780637b1837de1461036257600080fd5b806340bcf74814610287578063414f33dd146102bf578063452a9320146102df57600080fd5b80620fa9fb1461019c5780630b04b8d7146101bc5780630c9cbf0e146101dc578063162dfe001461022757806316ccc1331461024757806317b9d05e1461026757600080fd5b36610197576101953460003361050e565b005b600080fd5b3480156101a857600080fd5b506101956101b73660046112e8565b6105ef565b3480156101c857600080fd5b506101956101d73660046113db565b6106fc565b3480156101e857600080fd5b506102146101f73660046112e8565b600a60209081526000928352604080842090915290825290205481565b6040519081526020015b60405180910390f35b34801561023357600080fd5b50610195610242366004611381565b610830565b34801561025357600080fd5b506102146102623660046112cd565b6108e3565b34801561027357600080fd5b50610195610282366004611484565b610917565b34801561029357600080fd5b506102146102a23660046112e8565b600b60209081526000928352604080842090915290825290205481565b3480156102cb57600080fd5b506101956102da3660046114a6565b6109f6565b3480156102eb57600080fd5b506005546102ff906001600160a01b031681565b6040516001600160a01b03909116815260200161021e565b34801561032357600080fd5b5061019561033236600461144a565b610ac3565b34801561034357600080fd5b5061021460045481565b34801561035957600080fd5b50610214610b01565b61019561037036600461131b565b610b1a565b34801561038157600080fd5b506006546102ff906001600160a01b031681565b3480156103a157600080fd5b506101956103b03660046112cd565b610b3e565b3480156103c157600080fd5b50610214670de0b6b3a764000081565b3480156103dd57600080fd5b5061021460025481565b3480156103f357600080fd5b506102146104023660046112cd565b60076020526000908152604090205481565b34801561042057600080fd5b5061021460015481565b34801561043657600080fd5b50610214610445366004611345565b610b69565b34801561045657600080fd5b506102146104653660046112cd565b610bcc565b34801561047657600080fd5b5061021462093a8081565b34801561048d57600080fd5b5060095461049b9060ff1681565b604051901515815260200161021e565b3480156104b757600080fd5b506101956104c63660046114ec565b610c60565b3480156104d757600080fd5b5061021460035481565b3480156104ed57600080fd5b506102146104fc3660046112cd565b60086020526000908152604090205481565b6001600160a01b038083166000908152600b60209081526040808320938516835292905290812080548592906105459084906115eb565b90915550506001600160a01b038216600090815260076020526040812080548592906105729084906115eb565b90915550506001600160a01b0382161561059b5761059b6001600160a01b038316823086610e05565b604080516001600160a01b038084168252602082018690528416918101919091527fa5e8482b3a4fbac393476288e591dd9316d7304a537b26f9b67167f0ce19750f906060015b60405180910390a1505050565b60095460ff1680156106015750600154155b156106df576001600160a01b03808216600090815260076020908152604080832054600b8352818420948716845293909152812054909161064191611603565b9050806106615760405163043f9e1160e41b815260040160405180910390fd5b6001600160a01b038083166000908152600b60209081526040808320938716835292905290812055610694838284610e76565b604080516001600160a01b038086168252602082018490528416918101919091527f56c54ba9bd38d8fd62012e42c7ee564519b09763c426d331b3661b537ead19b2906060016105e2565b60405163209a769d60e11b815260040160405180910390fd5b5050565b61070885858585610830565b6000610715868684610b69565b90508061073557604051636d363c4560e01b815260040160405180910390fd5b6001600160a01b038083166000908152600a60209081526040808320938a168352929052908120805483929061076c9084906115eb565b90915550506001600160a01b038216600090815260086020526040812080548392906107999084906115eb565b90915550506001600160a01b038216600090815260076020526040812080548392906107c6908490611644565b909155506107d79050868284610e76565b604080516001600160a01b038881168252602082018890528183018490528416606082015290517fb6fe5ce185a3773d47e919f57c7edfd102c91cb7833b2be405c4de89d9980fd79181900360800190a1505050505050565b600061083a610b01565b6040516bffffffffffffffffffffffff19606088901b166020820152603481018690529091506000906054016040516020818303038152906040528051906020012090506108be848480806020026020016040519081016040528093929190818152602001838360200280828437600092019190915250869250859150610f3d9050565b6108db576040516309bde33960e01b815260040160405180910390fd5b505050505050565b6001600160a01b038116600090815260086020908152604080832054600790925282205461091191906115eb565b92915050565b6006546001600160a01b03163314610942576040516380fee10560e01b815260040160405180910390fd5b60095460ff1615610966576040516303cb96db60e21b815260040160405180910390fd5b60025415801590610978575060035442105b1561099657604051633420251360e11b815260040160405180910390fd5b600280546001558290556109ad62093a80426115eb565b6003819055604080518481526020810184905280820192909252517ff538af40d5ad77456cbcd96a5be317d724e66e0e08eb217c14812308bd43d35e9181900360600190a15050565b6000610a026001610f53565b90508015610a1a576000805461ff0019166101001790555b6004849055600580546001600160a01b038086166001600160a01b03199283161790925560068054928516929091169190911790558415610a6f576002859055610a6762093a80426115eb565b600355610a76565b6000196003555b8015610abc576000805461ff0019169055604051600181527f7f26b83ff96e1f2b6a682f133852f6798a09c465da95921460cefb38474024989060200160405180910390a15b5050505050565b6005546001600160a01b03163314610aee57604051636570ecab60e11b815260040160405180910390fd5b6009805460ff1916911515919091179055565b60006003544211610b13575060015490565b5060025490565b6001600160a01b038216610b33576106f834833361050e565b6106f881833361050e565b6000610b4982610bcc565b610b52836108e3565b610b5c9190611644565b90506106f881833061050e565b6001600160a01b038082166000908152600a60209081526040808320938716835292905290812054670de0b6b3a764000084610ba4856108e3565b610bae9190611625565b610bb89190611603565b610bc29190611644565b90505b9392505050565b60006001600160a01b03821615610c59576040516370a0823160e01b81523060048201526001600160a01b038316906370a082319060240160206040518083038186803b158015610c1c57600080fd5b505afa158015610c30573d6000803e3d6000fd5b505050506040513d601f19601f82011682018060405250810190610c54919061150d565b610911565b4792915050565b6005546001600160a01b03163314610c8b57604051636570ecab60e11b815260040160405180910390fd5b60095460ff1615610caf576040516303cb96db60e21b815260040160405180910390fd5b60025415801590610cc1575060035442115b15610cdf57604051631b69dd1760e21b815260040160405180910390fd5b60006002556000196003556001816002811115610cfe57610cfe6116b8565b1415610d5a57604051631867546560e21b815260016004820152309063619d519490602401600060405180830381600087803b158015610d3d57600080fd5b505af1158015610d51573d6000803e3d6000fd5b50505050610dcb565b6002816002811115610d6e57610d6e6116b8565b1415610dcb57604051631867546560e21b815260016004820152309063619d519490602401600060405180830381600087803b158015610dad57600080fd5b505af1158015610dc1573d6000803e3d6000fd5b5050600060015550505b7f0b700a39eebc9d322d0a5829d3d6447d9e000f73a89a7baa6a0fa28a5ec9c8d081604051610dfa9190611542565b60405180910390a150565b6040516001600160a01b0380851660248301528316604482015260648101829052610e709085906323b872dd60e01b906084015b60408051601f198184030181529190526020810180516001600160e01b03166001600160e01b031990931692909217909152610fe0565b50505050565b6001600160a01b038116610f24576000836001600160a01b03168360405160006040518083038185875af1925050503d8060008114610ed1576040519150601f19603f3d011682016040523d82523d6000602084013e610ed6565b606091505b5050905080610e705760405162461bcd60e51b8152602060048201526015602482015274195d1a195c881d1c985b9cd9995c8819985a5b1959605a1b60448201526064015b60405180910390fd5b610f386001600160a01b03821684846110b2565b505050565b600082610f4a85846110e2565b14949350505050565b60008054610100900460ff1615610f9a578160ff166001148015610f765750303b155b610f925760405162461bcd60e51b8152600401610f1b9061159d565b506000919050565b60005460ff808416911610610fc15760405162461bcd60e51b8152600401610f1b9061159d565b506000805460ff191660ff92909216919091179055600190565b919050565b6000611035826040518060400160405280602081526020017f5361666545524332303a206c6f772d6c6576656c2063616c6c206661696c6564815250856001600160a01b03166111569092919063ffffffff16565b805190915015610f3857808060200190518101906110539190611467565b610f385760405162461bcd60e51b815260206004820152602a60248201527f5361666545524332303a204552433230206f7065726174696f6e20646964206e6044820152691bdd081cdd58d8d9595960b21b6064820152608401610f1b565b6040516001600160a01b038316602482015260448101829052610f3890849063a9059cbb60e01b90606401610e39565b600081815b845181101561114e576000858281518110611104576111046116ce565b6020026020010151905080831161112a576000838152602082905260409020925061113b565b600081815260208490526040902092505b508061114681611687565b9150506110e7565b509392505050565b6060610bc28484600085856001600160a01b0385163b6111b85760405162461bcd60e51b815260206004820152601d60248201527f416464726573733a2063616c6c20746f206e6f6e2d636f6e74726163740000006044820152606401610f1b565b600080866001600160a01b031685876040516111d49190611526565b60006040518083038185875af1925050503d8060008114611211576040519150601f19603f3d011682016040523d82523d6000602084013e611216565b606091505b5091509150611226828286611231565b979650505050505050565b60608315611240575081610bc5565b8251156112505782518084602001fd5b8160405162461bcd60e51b8152600401610f1b919061156a565b80356001600160a01b0381168114610fdb57600080fd5b60008083601f84011261129357600080fd5b50813567ffffffffffffffff8111156112ab57600080fd5b6020830191508360208260051b85010111156112c657600080fd5b9250929050565b6000602082840312156112df57600080fd5b610bc58261126a565b600080604083850312156112fb57600080fd5b6113048361126a565b91506113126020840161126a565b90509250929050565b6000806040838503121561132e57600080fd5b6113378361126a565b946020939093013593505050565b60008060006060848603121561135a57600080fd5b6113638461126a565b9250602084013591506113786040850161126a565b90509250925092565b6000806000806060858703121561139757600080fd5b6113a08561126a565b935060208501359250604085013567ffffffffffffffff8111156113c357600080fd5b6113cf87828801611281565b95989497509550505050565b6000806000806000608086880312156113f357600080fd5b6113fc8661126a565b945060208601359350604086013567ffffffffffffffff81111561141f57600080fd5b61142b88828901611281565b909450925061143e90506060870161126a565b90509295509295909350565b60006020828403121561145c57600080fd5b8135610bc5816116e4565b60006020828403121561147957600080fd5b8151610bc5816116e4565b6000806040838503121561149757600080fd5b50508035926020909101359150565b600080600080608085870312156114bc57600080fd5b84359350602085013592506114d36040860161126a565b91506114e16060860161126a565b905092959194509250565b6000602082840312156114fe57600080fd5b813560038110610bc557600080fd5b60006020828403121561151f57600080fd5b5051919050565b6000825161153881846020870161165b565b9190910192915050565b602081016003831061156457634e487b7160e01b600052602160045260246000fd5b91905290565b602081526000825180602084015261158981604085016020870161165b565b601f01601f19169190910160400192915050565b6020808252602e908201527f496e697469616c697a61626c653a20636f6e747261637420697320616c72656160408201526d191e481a5b9a5d1a585b1a5e995960921b606082015260800190565b600082198211156115fe576115fe6116a2565b500190565b60008261162057634e487b7160e01b600052601260045260246000fd5b500490565b600081600019048311821515161561163f5761163f6116a2565b500290565b600082821015611656576116566116a2565b500390565b60005b8381101561167657818101518382015260200161165e565b83811115610e705750506000910152565b600060001982141561169b5761169b6116a2565b5060010190565b634e487b7160e01b600052601160045260246000fd5b634e487b7160e01b600052602160045260246000fd5b634e487b7160e01b600052603260045260246000fd5b80151581146116f257600080fd5b5056fea26469706673582212206d5cc0d4e4d66293b22578bc6e16d897d5c14f6c38941938816269933e9ac94f64736f6c63430008060033",
  "linkReferences": {},
  "deployedLinkReferences": {}
}