{
  "_format": "hh-sol-artifact-1",
  "contractName": "Campaign",
  "sourceName": "contracts/Campaign.sol",
  "abi": [
    {
      "inputs": [],
      "name": "InvalidProof",
      "type": "error"
    },
    {
      "inputs": [],
      "name": "Locked",
      "type": "error"
    },
    {
      "inputs": [],
      "name": "MerkleRootUpdateNotAllowed",
      "type": "error"
    },
    {
      "inputs": [],
      "name": "NoAssetsToWithdraw",
      "type": "error"
    },
    {
      "inputs": [],
      "name": "NoRewardAvailable",
      "type": "error"
    },
    {
      "inputs": [],
      "name": "OnlyGuardian",
      "type": "error"
    },
    {
      "inputs": [],
      "name": "OnlyInChallengePeriod",
      "type": "error"
    },
    {
      "inputs": [],
      "name": "OnlyOracle",
      "type": "error"
    },
    {
      "inputs": [],
      "name": "WithdrawalNotAllowed",
      "type": "error"
    },
    {
      "anonymous": false,
      "inputs": [
        {
          "indexed": false,
          "internalType": "enum Campaign.ChallengeAction",
          "name": "action",
          "type": "uint8"
        }
      ],
      "name": "Challenge",
      "type": "event"
    },
    {
      "anonymous": false,
      "inputs": [
        {
          "indexed": true,
          "internalType": "address",
          "name": "account",
          "type": "address"
        },
        {
          "indexed": false,
          "internalType": "uint256",
          "name": "share",
          "type": "uint256"
        },
        {
          "indexed": false,
          "internalType": "uint256",
          "name": "reward",
          "type": "uint256"
        },
        {
          "indexed": false,
          "internalType": "address",
          "name": "assset",
          "type": "address"
        }
      ],
      "name": "Claim",
      "type": "event"
    },
    {
      "anonymous": false,
      "inputs": [
        {
          "indexed": true,
          "internalType": "address",
          "name": "provider",
          "type": "address"
        },
        {
          "indexed": false,
          "internalType": "uint256",
          "name": "amount",
          "type": "uint256"
        },
        {
          "indexed": false,
          "internalType": "address",
          "name": "asset",
          "type": "address"
        }
      ],
      "name": "Fund",
      "type": "event"
    },
    {
      "anonymous": false,
      "inputs": [
        {
          "indexed": false,
          "internalType": "uint8",
          "name": "version",
          "type": "uint8"
        }
      ],
      "name": "Initialized",
      "type": "event"
    },
    {
      "anonymous": false,
      "inputs": [
        {
          "indexed": false,
          "internalType": "bool",
          "name": "locked",
          "type": "bool"
        }
      ],
      "name": "Lock",
      "type": "event"
    },
    {
      "anonymous": false,
      "inputs": [
        {
          "indexed": false,
          "internalType": "bytes32",
          "name": "sharesMerkleRoot",
          "type": "bytes32"
        },
        {
          "indexed": false,
          "internalType": "bytes32",
          "name": "sharesUri",
          "type": "bytes32"
        },
        {
          "indexed": false,
          "internalType": "uint256",
          "name": "activationTime",
          "type": "uint256"
        }
      ],
      "name": "SharesMerkleRootUpdate",
      "type": "event"
    },
    {
      "anonymous": false,
      "inputs": [
        {
          "indexed": true,
          "internalType": "address",
          "name": "account",
          "type": "address"
        },
        {
          "indexed": false,
          "internalType": "uint256",
          "name": "amount",
          "type": "uint256"
        },
        {
          "indexed": false,
          "internalType": "address",
          "name": "asset",
          "type": "address"
        }
      ],
      "name": "Withdraw",
      "type": "event"
    },
    {
      "inputs": [],
      "name": "ACTIVATION_PERIOD",
      "outputs": [
        {
          "internalType": "uint256",
          "name": "",
          "type": "uint256"
        }
      ],
      "stateMutability": "view",
      "type": "function"
    },
    {
      "inputs": [],
      "name": "ACTIVE_DURATION",
      "outputs": [
        {
          "internalType": "uint256",
          "name": "",
          "type": "uint256"
        }
      ],
      "stateMutability": "view",
      "type": "function"
    },
    {
      "inputs": [],
      "name": "CHALLENGE_PERIOD",
      "outputs": [
        {
          "internalType": "uint256",
          "name": "",
          "type": "uint256"
        }
      ],
      "stateMutability": "view",
      "type": "function"
    },
    {
      "inputs": [],
      "name": "TOTAL_SHARES",
      "outputs": [
        {
          "internalType": "uint256",
          "name": "",
          "type": "uint256"
        }
      ],
      "stateMutability": "view",
      "type": "function"
    },
    {
      "inputs": [],
      "name": "activationTime",
      "outputs": [
        {
          "internalType": "uint256",
          "name": "",
          "type": "uint256"
        }
      ],
      "stateMutability": "view",
      "type": "function"
    },
    {
      "inputs": [],
      "name": "approvedMerkleRoot",
      "outputs": [
        {
          "internalType": "bytes32",
          "name": "",
          "type": "bytes32"
        }
      ],
      "stateMutability": "view",
      "type": "function"
    },
    {
      "inputs": [
        {
          "internalType": "address",
          "name": "asset",
          "type": "address"
        }
      ],
      "name": "balanceOfAsset",
      "outputs": [
        {
          "internalType": "uint256",
          "name": "",
          "type": "uint256"
        }
      ],
      "stateMutability": "view",
      "type": "function"
    },
    {
      "inputs": [
        {
          "internalType": "enum Campaign.ChallengeAction",
          "name": "action",
          "type": "uint8"
        }
      ],
      "name": "challenge",
      "outputs": [],
      "stateMutability": "nonpayable",
      "type": "function"
    },
    {
      "inputs": [
        {
          "internalType": "address",
          "name": "account",
          "type": "address"
        },
        {
          "internalType": "uint256",
          "name": "share",
          "type": "uint256"
        },
        {
          "internalType": "bytes32[]",
          "name": "proof",
          "type": "bytes32[]"
        },
        {
          "internalType": "address[]",
          "name": "assets",
          "type": "address[]"
        },
        {
          "internalType": "address",
          "name": "target",
          "type": "address"
        }
      ],
      "name": "claim",
      "outputs": [],
      "stateMutability": "nonpayable",
      "type": "function"
    },
    {
      "inputs": [
        {
          "internalType": "address",
          "name": "",
          "type": "address"
        },
        {
          "internalType": "address",
          "name": "",
          "type": "address"
        }
      ],
      "name": "claimed",
      "outputs": [
        {
          "internalType": "uint256",
          "name": "",
          "type": "uint256"
        }
      ],
      "stateMutability": "view",
      "type": "function"
    },
    {
      "inputs": [],
      "name": "deployTime",
      "outputs": [
        {
          "internalType": "uint256",
          "name": "",
          "type": "uint256"
        }
      ],
      "stateMutability": "view",
      "type": "function"
    },
    {
      "inputs": [
        {
          "internalType": "address",
          "name": "asset",
          "type": "address"
        },
        {
          "internalType": "uint256",
          "name": "amount",
          "type": "uint256"
        }
      ],
      "name": "fund",
      "outputs": [],
      "stateMutability": "payable",
      "type": "function"
    },
    {
      "inputs": [],
      "name": "getValidRoot",
      "outputs": [
        {
          "internalType": "bytes32",
          "name": "root",
          "type": "bytes32"
        }
      ],
      "stateMutability": "view",
      "type": "function"
    },
    {
      "inputs": [],
      "name": "guardian",
      "outputs": [
        {
          "internalType": "address",
          "name": "",
          "type": "address"
        }
      ],
      "stateMutability": "view",
      "type": "function"
    },
    {
      "inputs": [
        {
          "internalType": "bytes32",
          "name": "_strategyUri",
          "type": "bytes32"
        },
        {
          "internalType": "address",
          "name": "_guardian",
          "type": "address"
        },
        {
          "internalType": "address",
          "name": "_oracle",
          "type": "address"
        },
        {
          "internalType": "uint256",
          "name": "_activationTime",
          "type": "uint256"
        },
        {
          "internalType": "uint256",
          "name": "_CHALLENGE_PERIOD",
          "type": "uint256"
        },
        {
          "internalType": "uint256",
          "name": "_ACTIVATION_PERIOD",
          "type": "uint256"
        },
        {
          "internalType": "uint256",
          "name": "_ACTIVE_DURATION",
          "type": "uint256"
        }
      ],
      "name": "initCampaign",
      "outputs": [],
      "stateMutability": "nonpayable",
      "type": "function"
    },
    {
      "inputs": [],
      "name": "isChallengePeriod",
      "outputs": [
        {
          "internalType": "bool",
          "name": "",
          "type": "bool"
        }
      ],
      "stateMutability": "view",
      "type": "function"
    },
    {
      "inputs": [],
      "name": "isPendingActive",
      "outputs": [
        {
          "internalType": "bool",
          "name": "isActive",
          "type": "bool"
        }
      ],
      "stateMutability": "view",
      "type": "function"
    },
    {
      "inputs": [],
      "name": "isProposeWindowActive",
      "outputs": [
        {
          "internalType": "bool",
          "name": "",
          "type": "bool"
        }
      ],
      "stateMutability": "view",
      "type": "function"
    },
    {
      "inputs": [],
      "name": "locked",
      "outputs": [
        {
          "internalType": "bool",
          "name": "",
          "type": "bool"
        }
      ],
      "stateMutability": "view",
      "type": "function"
    },
    {
      "inputs": [],
      "name": "merkleRootUpdateAllowed",
      "outputs": [
        {
          "internalType": "bool",
          "name": "",
          "type": "bool"
        }
      ],
      "stateMutability": "view",
      "type": "function"
    },
    {
      "inputs": [],
      "name": "oracle",
      "outputs": [
        {
          "internalType": "address",
          "name": "",
          "type": "address"
        }
      ],
      "stateMutability": "view",
      "type": "function"
    },
    {
      "inputs": [],
      "name": "pendingMerkleRoot",
      "outputs": [
        {
          "internalType": "bytes32",
          "name": "",
          "type": "bytes32"
        }
      ],
      "stateMutability": "view",
      "type": "function"
    },
    {
      "inputs": [
        {
          "internalType": "bytes32",
          "name": "_sharesMerkleRoot",
          "type": "bytes32"
        },
        {
          "internalType": "bytes32",
          "name": "_sharesUri",
          "type": "bytes32"
        }
      ],
      "name": "proposeShares",
      "outputs": [],
      "stateMutability": "nonpayable",
      "type": "function"
    },
    {
      "inputs": [
        {
          "internalType": "address",
          "name": "",
          "type": "address"
        },
        {
          "internalType": "address",
          "name": "",
          "type": "address"
        }
      ],
      "name": "providers",
      "outputs": [
        {
          "internalType": "uint256",
          "name": "",
          "type": "uint256"
        }
      ],
      "stateMutability": "view",
      "type": "function"
    },
    {
      "inputs": [
        {
          "internalType": "address",
          "name": "account",
          "type": "address"
        },
        {
          "internalType": "uint256",
          "name": "share",
          "type": "uint256"
        },
        {
          "internalType": "address",
          "name": "asset",
          "type": "address"
        }
      ],
      "name": "rewardsAvailableToClaimer",
      "outputs": [
        {
          "internalType": "uint256",
          "name": "total",
          "type": "uint256"
        }
      ],
      "stateMutability": "view",
      "type": "function"
    },
    {
      "inputs": [
        {
          "internalType": "bool",
          "name": "_lock",
          "type": "bool"
        }
      ],
      "name": "setLock",
      "outputs": [],
      "stateMutability": "nonpayable",
      "type": "function"
    },
    {
      "inputs": [],
      "name": "strategyUri",
      "outputs": [
        {
          "internalType": "bytes32",
          "name": "",
          "type": "bytes32"
        }
      ],
      "stateMutability": "view",
      "type": "function"
    },
    {
      "inputs": [
        {
          "internalType": "address",
          "name": "",
          "type": "address"
        }
      ],
      "name": "totalClaimed",
      "outputs": [
        {
          "internalType": "uint256",
          "name": "",
          "type": "uint256"
        }
      ],
      "stateMutability": "view",
      "type": "function"
    },
    {
      "inputs": [
        {
          "internalType": "address",
          "name": "asset",
          "type": "address"
        }
      ],
      "name": "totalReceived",
      "outputs": [
        {
          "internalType": "uint256",
          "name": "total",
          "type": "uint256"
        }
      ],
      "stateMutability": "view",
      "type": "function"
    },
    {
      "inputs": [
        {
          "internalType": "address",
          "name": "account",
          "type": "address"
        },
        {
          "internalType": "uint256",
          "name": "share",
          "type": "uint256"
        },
        {
          "internalType": "bytes32[]",
          "name": "proof",
          "type": "bytes32[]"
        }
      ],
      "name": "verifyShares",
      "outputs": [],
      "stateMutability": "view",
      "type": "function"
    },
    {
      "inputs": [],
      "name": "withdrawAllowed",
      "outputs": [
        {
          "internalType": "bool",
          "name": "",
          "type": "bool"
        }
      ],
      "stateMutability": "view",
      "type": "function"
    },
    {
      "inputs": [
        {
          "internalType": "address",
          "name": "account",
          "type": "address"
        },
        {
          "internalType": "address",
          "name": "asset",
          "type": "address"
        }
      ],
      "name": "withdrawAssets",
      "outputs": [],
      "stateMutability": "nonpayable",
      "type": "function"
    },
    {
      "stateMutability": "payable",
      "type": "receive"
    }
  ],
  "bytecode": "0x608060405234801561001057600080fd5b50600180556118df806100246000396000f3fe6080604052600436106101e65760003560e01c80637b1837de11610102578063be8b768611610095578063cf30901211610064578063cf30901214610552578063d3f323571461056c578063da4493f61461058c578063ef5d9ae8146105a257600080fd5b8063be8b7686146104dc578063c1d89941146104fc578063c24e47781461051c578063c3a079ed1461053c57600080fd5b80638abb5d22116100d15780638abb5d22146104705780639637f47514610490578063a98acb46146104a6578063a9ec3a1b146104c657600080fd5b80637b1837de1461040a5780637c99ca6d1461041d5780637dc0d1d01461043457806385e3f9971461045457600080fd5b80634df9cfb31161017a5780636c4fbc4a116101495780636c4fbc4a146103b4578063717f9092146103c957806375e07c2d146103df5780637a40624b146103f457600080fd5b80634df9cfb31461034a578063510cbd9c1461036a578063574eab011461037f578063619d51941461039457600080fd5b80633e161940116101b65780633e1619401461029f57806340bcf748146102b557806344949728146102ed578063452a93201461031257600080fd5b80627c4d51146101fe5780630c9cbf0e14610227578063162dfe001461025f57806317b9d05e1461027f57600080fd5b366101f9576101f7346000336105cf565b005b600080fd5b34801561020a57600080fd5b5061021460045481565b6040519081526020015b60405180910390f35b34801561023357600080fd5b50610214610242366004611467565b600d60209081526000928352604080842090915290825290205481565b34801561026b57600080fd5b506101f761027a366004611500565b61067a565b34801561028b57600080fd5b506101f761029a366004611690565b61072d565b3480156102ab57600080fd5b5061021460035481565b3480156102c157600080fd5b506102146102d0366004611467565b600f60209081526000928352604080842090915290825290205481565b3480156102f957600080fd5b50610302610801565b604051901515815260200161021e565b34801561031e57600080fd5b50600a54610332906001600160a01b031681565b6040516001600160a01b03909116815260200161021e565b34801561035657600080fd5b5061021461036536600461144c565b610827565b34801561037657600080fd5b50610302610859565b34801561038b57600080fd5b50610302610886565b3480156103a057600080fd5b506101f76103af3660046115f5565b6108b8565b3480156103c057600080fd5b5061030261092b565b3480156103d557600080fd5b5061021460095481565b3480156103eb57600080fd5b5061021461093d565b34801561040057600080fd5b5061021460085481565b6101f761041836600461149a565b61095c565b34801561042957600080fd5b506007544211610302565b34801561044057600080fd5b50600b54610332906001600160a01b031681565b34801561046057600080fd5b50610214670de0b6b3a764000081565b34801561047c57600080fd5b506101f761048b36600461155a565b6109ea565b34801561049c57600080fd5b5061021460065481565b3480156104b257600080fd5b506101f76104c136600461162f565b610a56565b3480156104d257600080fd5b5061021460055481565b3480156104e857600080fd5b506102146104f73660046114c4565b610bbd565b34801561050857600080fd5b5061021461051736600461144c565b610c20565b34801561052857600080fd5b506101f7610537366004611467565b610cb4565b34801561054857600080fd5b5061021460025481565b34801561055e57600080fd5b50600e546103029060ff1681565b34801561057857600080fd5b506101f76105873660046116b2565b610d93565b34801561059857600080fd5b5061021460075481565b3480156105ae57600080fd5b506102146105bd36600461144c565b600c6020526000908152604090205481565b6001600160a01b038083166000908152600f6020908152604080832093851683529290529081208054859290610606908490611763565b90915550506001600160a01b0382161561062f5761062f6001600160a01b038316823086610e94565b604080518481526001600160a01b0384811660208301528316917fa5e8482b3a4fbac393476288e591dd9316d7304a537b26f9b67167f0ce19750f91015b60405180910390a2505050565b600061068461093d565b6040516bffffffffffffffffffffffff19606088901b16602082015260348101869052909150600090605401604051602081830303815290604052805190602001209050610708848480806020026020016040519081016040528093929190818152602001838360200280828437600092019190915250869250859150610f059050565b610725576040516309bde33960e01b815260040160405180910390fd5b505050505050565b600b546001600160a01b03163314610758576040516380fee10560e01b815260040160405180910390fd5b600e5460ff161561077c576040516303cb96db60e21b815260040160405180910390fd5b610784610859565b6107a157604051631aeebaf760e11b815260040160405180910390fd5b600680546005558290556002546107b89042611763565b6007819055604080518481526020810184905280820192909252517f93d244ac7b8f4282b061b1dcb3f543f36f06af40a7bfdefe04fc913ef7ea54f99181900360600190a15050565b60006004546003546008544261081791906117ae565b610821919061182c565b10905090565b6001600160a01b0381166000908152600c602052604081205461084983610c20565b6108539190611763565b92915050565b600061086361092b565b1561086e5750600090565b610876610801565b6108805750600090565b50600190565b600e5460009060ff16801561089b5750600554155b80156108a75750600654155b156108b25750600190565b50600090565b600a546001600160a01b031633146108e357604051636570ecab60e11b815260040160405180910390fd5b600e805460ff19168215159081179091556040519081527f73cb6ff886d89c3816d03270daa43e4789d7c218d9a12960651ff278e1fef1f1906020015b60405180910390a150565b60006007544210156108b25750600190565b600061094a600754421190565b610955575060055490565b5060065490565b600260015414156109b45760405162461bcd60e51b815260206004820152601f60248201527f5265656e7472616e637947756172643a207265656e7472616e742063616c6c0060448201526064015b60405180910390fd5b60026001556001600160a01b0382166109d7576109d23483336105cf565b6109e2565b6109e28183336105cf565b505060018055565b6109f68787878761067a565b60005b60ff8116831115610a4c57610a3a888886868560ff16818110610a1e57610a1e611882565b9050602002016020810190610a33919061144c565b3386610f1b565b80610a448161180c565b9150506109f9565b5050505050505050565b600054610100900460ff1615808015610a765750600054600160ff909116105b80610a905750303b158015610a90575060005460ff166001145b610af35760405162461bcd60e51b815260206004820152602e60248201527f496e697469616c697a61626c653a20636f6e747261637420697320616c72656160448201526d191e481a5b9a5d1a585b1a5e995960921b60648201526084016109ab565b6000805460ff191660011790558015610b16576000805461ff0019166101001790555b6009889055600a80546001600160a01b03808a166001600160a01b031992831617909255600b80549289169290911691909117905584610b565742610b58565b845b600755426008556002849055600383905560048290558015610a4c576000805461ff0019169055604051600181527f7f26b83ff96e1f2b6a682f133852f6798a09c465da95921460cefb38474024989060200160405180910390a15050505050505050565b6001600160a01b038082166000908152600d60209081526040808320938716835292905290812054670de0b6b3a764000084610bf885610827565b610c02919061178f565b610c0c919061177b565b610c1691906117ae565b90505b9392505050565b60006001600160a01b03821615610cad576040516370a0823160e01b81523060048201526001600160a01b038316906370a082319060240160206040518083038186803b158015610c7057600080fd5b505afa158015610c84573d6000803e3d6000fd5b505050506040513d601f19601f82011682018060405250810190610ca891906116d3565b610853565b4792915050565b610cbc610886565b15610d7a576001600160a01b038082166000908152600f602090815260408083209386168352929052205480610d0557604051635da3252f60e11b815260040160405180910390fd5b6001600160a01b038083166000908152600f60209081526040808320938716835292905290812055610d3883828461102e565b604080518281526001600160a01b0384811660208301528516917f56c54ba9bd38d8fd62012e42c7ee564519b09763c426d331b3661b537ead19b2910161066d565b60405163209a769d60e11b815260040160405180910390fd5b600a546001600160a01b03163314610dbe57604051636570ecab60e11b815260040160405180910390fd5b600e5460ff1615610de2576040516303cb96db60e21b815260040160405180910390fd5b610dea61092b565b610e0757604051631b69dd1760e21b815260040160405180910390fd5b60006006556001816002811115610e2057610e2061186c565b1415610e3857600e805460ff19166001179055610e65565b6002816002811115610e4c57610e4c61186c565b1415610e6557600e805460ff1916600117905560006005555b7f0b700a39eebc9d322d0a5829d3d6447d9e000f73a89a7baa6a0fa28a5ec9c8d0816040516109209190611708565b6040516001600160a01b0380851660248301528316604482015260648101829052610eff9085906323b872dd60e01b906084015b60408051601f198184030181529190526020810180516001600160e01b03166001600160e01b0319909316929092179091526110f0565b50505050565b600082610f1285846111c2565b14949350505050565b6000610f28868686610bbd565b6001600160a01b038086166000908152600d60209081526040808320938b16835292905290812080549293508392909190610f64908490611763565b90915550506001600160a01b0384166000908152600c602052604081208054839290610f91908490611763565b90915550506001600160a01b03838116908716148015610fb957506001600160a01b03821615155b15610fce57610fc982828661102e565b610fd9565b610fd986828661102e565b60408051868152602081018390526001600160a01b03868116828401529151918816917fb6fe5ce185a3773d47e919f57c7edfd102c91cb7833b2be405c4de89d9980fd79181900360600190a2505050505050565b6001600160a01b0381166110d7576000836001600160a01b03168360405160006040518083038185875af1925050503d8060008114611089576040519150601f19603f3d011682016040523d82523d6000602084013e61108e565b606091505b5050905080610eff5760405162461bcd60e51b8152602060048201526015602482015274195d1a195c881d1c985b9cd9995c8819985a5b1959605a1b60448201526064016109ab565b6110eb6001600160a01b038216848461120f565b505050565b6000611145826040518060400160405280602081526020017f5361666545524332303a206c6f772d6c6576656c2063616c6c206661696c6564815250856001600160a01b031661123f9092919063ffffffff16565b8051909150156110eb57808060200190518101906111639190611612565b6110eb5760405162461bcd60e51b815260206004820152602a60248201527f5361666545524332303a204552433230206f7065726174696f6e20646964206e6044820152691bdd081cdd58d8d9595960b21b60648201526084016109ab565b600081815b8451811015611207576111f3828683815181106111e6576111e6611882565b602002602001015161124e565b9150806111ff816117f1565b9150506111c7565b509392505050565b6040516001600160a01b0383166024820152604481018290526110eb90849063a9059cbb60e01b90606401610ec8565b6060610c16848460008561127a565b600081831061126a576000828152602084905260409020610c19565b5060009182526020526040902090565b6060824710156112db5760405162461bcd60e51b815260206004820152602660248201527f416464726573733a20696e73756666696369656e742062616c616e636520666f6044820152651c8818d85b1b60d21b60648201526084016109ab565b6001600160a01b0385163b6113325760405162461bcd60e51b815260206004820152601d60248201527f416464726573733a2063616c6c20746f206e6f6e2d636f6e747261637400000060448201526064016109ab565b600080866001600160a01b0316858760405161134e91906116ec565b60006040518083038185875af1925050503d806000811461138b576040519150601f19603f3d011682016040523d82523d6000602084013e611390565b606091505b50915091506113a08282866113ab565b979650505050505050565b606083156113ba575081610c19565b8251156113ca5782518084602001fd5b8160405162461bcd60e51b81526004016109ab9190611730565b80356001600160a01b03811681146113fb57600080fd5b919050565b60008083601f84011261141257600080fd5b50813567ffffffffffffffff81111561142a57600080fd5b6020830191508360208260051b850101111561144557600080fd5b9250929050565b60006020828403121561145e57600080fd5b610c19826113e4565b6000806040838503121561147a57600080fd5b611483836113e4565b9150611491602084016113e4565b90509250929050565b600080604083850312156114ad57600080fd5b6114b6836113e4565b946020939093013593505050565b6000806000606084860312156114d957600080fd5b6114e2846113e4565b9250602084013591506114f7604085016113e4565b90509250925092565b6000806000806060858703121561151657600080fd5b61151f856113e4565b935060208501359250604085013567ffffffffffffffff81111561154257600080fd5b61154e87828801611400565b95989497509550505050565b600080600080600080600060a0888a03121561157557600080fd5b61157e886113e4565b965060208801359550604088013567ffffffffffffffff808211156115a257600080fd5b6115ae8b838c01611400565b909750955060608a01359150808211156115c757600080fd5b506115d48a828b01611400565b90945092506115e79050608089016113e4565b905092959891949750929550565b60006020828403121561160757600080fd5b8135610c1981611898565b60006020828403121561162457600080fd5b8151610c1981611898565b600080600080600080600060e0888a03121561164a57600080fd5b8735965061165a602089016113e4565b9550611668604089016113e4565b969995985095966060810135965060808101359560a0820135955060c0909101359350915050565b600080604083850312156116a357600080fd5b50508035926020909101359150565b6000602082840312156116c457600080fd5b813560038110610c1957600080fd5b6000602082840312156116e557600080fd5b5051919050565b600082516116fe8184602087016117c5565b9190910192915050565b602081016003831061172a57634e487b7160e01b600052602160045260246000fd5b91905290565b602081526000825180602084015261174f8160408501602087016117c5565b601f01601f19169190910160400192915050565b6000821982111561177657611776611840565b500190565b60008261178a5761178a611856565b500490565b60008160001904831182151516156117a9576117a9611840565b500290565b6000828210156117c0576117c0611840565b500390565b60005b838110156117e05781810151838201526020016117c8565b83811115610eff5750506000910152565b600060001982141561180557611805611840565b5060010190565b600060ff821660ff81141561182357611823611840565b60010192915050565b60008261183b5761183b611856565b500690565b634e487b7160e01b600052601160045260246000fd5b634e487b7160e01b600052601260045260246000fd5b634e487b7160e01b600052602160045260246000fd5b634e487b7160e01b600052603260045260246000fd5b80151581146118a657600080fd5b5056fea264697066735822122011cd0ce33bab0c65840bbe869e95f8a562a14cc52c8e8ea9ad81a488535e4f1664736f6c63430008060033",
  "linkReferences": {},
  "deployedLinkReferences": {}
}