{
  "address": "0xDA64a337E4ff8d9Cca96506cd2fF6eF87205D0Df",
  "abi": [
    {
      "inputs": [
        {
          "internalType": "uint256",
          "name": "blockTime",
          "type": "uint256"
        }
      ],
      "name": "ChallengePeriodActive",
      "type": "error"
    },
    {
      "inputs": [],
      "name": "InvalidProof",
      "type": "error"
    },
    {
      "inputs": [],
      "name": "Locked",
      "type": "error"
    },
    {
      "inputs": [],
      "name": "NoAssetsToWithdraw",
      "type": "error"
    },
    {
      "inputs": [],
      "name": "NoRewardAvailable",
      "type": "error"
    },
    {
      "inputs": [],
      "name": "OnlyGuardian",
      "type": "error"
    },
    {
      "inputs": [
        {
          "internalType": "uint256",
          "name": "blockTime",
          "type": "uint256"
        }
      ],
      "name": "OnlyInChallengePeriod",
      "type": "error"
    },
    {
      "inputs": [],
      "name": "OnlyOracle",
      "type": "error"
    },
    {
      "inputs": [
        {
          "internalType": "uint256",
          "name": "blockTime",
          "type": "uint256"
        }
      ],
      "name": "ProposeWindowNotActive",
      "type": "error"
    },
    {
      "inputs": [],
      "name": "WithdrawalNotAllowed",
      "type": "error"
    },
    {
      "anonymous": false,
      "inputs": [
        {
          "indexed": false,
          "internalType": "enum Campaign.ChallengeAction",
          "name": "action",
          "type": "uint8"
        }
      ],
      "name": "Challenge",
      "type": "event"
    },
    {
      "anonymous": false,
      "inputs": [
        {
          "indexed": true,
          "internalType": "address",
          "name": "account",
          "type": "address"
        },
        {
          "indexed": false,
          "internalType": "uint256",
          "name": "share",
          "type": "uint256"
        },
        {
          "indexed": false,
          "internalType": "uint256",
          "name": "reward",
          "type": "uint256"
        },
        {
          "indexed": false,
          "internalType": "address",
          "name": "assset",
          "type": "address"
        }
      ],
      "name": "Claim",
      "type": "event"
    },
    {
      "anonymous": false,
      "inputs": [
        {
          "indexed": true,
          "internalType": "address",
          "name": "provider",
          "type": "address"
        },
        {
          "indexed": false,
          "internalType": "uint256",
          "name": "amount",
          "type": "uint256"
        },
        {
          "indexed": false,
          "internalType": "address",
          "name": "asset",
          "type": "address"
        }
      ],
      "name": "Fund",
      "type": "event"
    },
    {
      "anonymous": false,
      "inputs": [
        {
          "indexed": false,
          "internalType": "uint8",
          "name": "version",
          "type": "uint8"
        }
      ],
      "name": "Initialized",
      "type": "event"
    },
    {
      "anonymous": false,
      "inputs": [
        {
          "indexed": false,
          "internalType": "bool",
          "name": "locked",
          "type": "bool"
        }
      ],
      "name": "Lock",
      "type": "event"
    },
    {
      "anonymous": false,
      "inputs": [
        {
          "indexed": false,
          "internalType": "bytes32",
          "name": "sharesMerkleRoot",
          "type": "bytes32"
        },
        {
          "indexed": false,
          "internalType": "bytes32",
          "name": "sharesUri",
          "type": "bytes32"
        },
        {
          "indexed": false,
          "internalType": "uint256",
          "name": "activationTime",
          "type": "uint256"
        }
      ],
      "name": "SharesMerkleRootUpdate",
      "type": "event"
    },
    {
      "anonymous": false,
      "inputs": [
        {
          "indexed": true,
          "internalType": "address",
          "name": "account",
          "type": "address"
        },
        {
          "indexed": false,
          "internalType": "uint256",
          "name": "amount",
          "type": "uint256"
        },
        {
          "indexed": false,
          "internalType": "address",
          "name": "asset",
          "type": "address"
        }
      ],
      "name": "Withdraw",
      "type": "event"
    },
    {
      "inputs": [],
      "name": "ACTIVATION_PERIOD",
      "outputs": [
        {
          "internalType": "uint256",
          "name": "",
          "type": "uint256"
        }
      ],
      "stateMutability": "view",
      "type": "function"
    },
    {
      "inputs": [],
      "name": "ACTIVE_DURATION",
      "outputs": [
        {
          "internalType": "uint256",
          "name": "",
          "type": "uint256"
        }
      ],
      "stateMutability": "view",
      "type": "function"
    },
    {
      "inputs": [],
      "name": "CHALLENGE_PERIOD",
      "outputs": [
        {
          "internalType": "uint256",
          "name": "",
          "type": "uint256"
        }
      ],
      "stateMutability": "view",
      "type": "function"
    },
    {
      "inputs": [],
      "name": "TOTAL_SHARES",
      "outputs": [
        {
          "internalType": "uint256",
          "name": "",
          "type": "uint256"
        }
      ],
      "stateMutability": "view",
      "type": "function"
    },
    {
      "inputs": [],
      "name": "activationTime",
      "outputs": [
        {
          "internalType": "uint256",
          "name": "",
          "type": "uint256"
        }
      ],
      "stateMutability": "view",
      "type": "function"
    },
    {
      "inputs": [],
      "name": "approvedMerkleRoot",
      "outputs": [
        {
          "internalType": "bytes32",
          "name": "",
          "type": "bytes32"
        }
      ],
      "stateMutability": "view",
      "type": "function"
    },
    {
      "inputs": [
        {
          "internalType": "address",
          "name": "asset",
          "type": "address"
        }
      ],
      "name": "balanceOfAsset",
      "outputs": [
        {
          "internalType": "uint256",
          "name": "",
          "type": "uint256"
        }
      ],
      "stateMutability": "view",
      "type": "function"
    },
    {
      "inputs": [
        {
          "internalType": "enum Campaign.ChallengeAction",
          "name": "action",
          "type": "uint8"
        }
      ],
      "name": "challenge",
      "outputs": [],
      "stateMutability": "nonpayable",
      "type": "function"
    },
    {
      "inputs": [],
      "name": "checkMerkleRootUpdateAllowed",
      "outputs": [],
      "stateMutability": "view",
      "type": "function"
    },
    {
      "inputs": [
        {
          "internalType": "address",
          "name": "account",
          "type": "address"
        },
        {
          "internalType": "uint256",
          "name": "share",
          "type": "uint256"
        },
        {
          "internalType": "bytes32[]",
          "name": "proof",
          "type": "bytes32[]"
        },
        {
          "internalType": "address[]",
          "name": "assets",
          "type": "address[]"
        },
        {
          "internalType": "address",
          "name": "target",
          "type": "address"
        }
      ],
      "name": "claim",
      "outputs": [],
      "stateMutability": "nonpayable",
      "type": "function"
    },
    {
      "inputs": [
        {
          "internalType": "address",
          "name": "",
          "type": "address"
        },
        {
          "internalType": "address",
          "name": "",
          "type": "address"
        }
      ],
      "name": "claimed",
      "outputs": [
        {
          "internalType": "uint256",
          "name": "",
          "type": "uint256"
        }
      ],
      "stateMutability": "view",
      "type": "function"
    },
    {
      "inputs": [],
      "name": "deployTime",
      "outputs": [
        {
          "internalType": "uint256",
          "name": "",
          "type": "uint256"
        }
      ],
      "stateMutability": "view",
      "type": "function"
    },
    {
      "inputs": [
        {
          "internalType": "address",
          "name": "asset",
          "type": "address"
        },
        {
          "internalType": "uint256",
          "name": "amount",
          "type": "uint256"
        }
      ],
      "name": "fund",
      "outputs": [],
      "stateMutability": "payable",
      "type": "function"
    },
    {
      "inputs": [],
      "name": "getValidRoot",
      "outputs": [
        {
          "internalType": "bytes32",
          "name": "root",
          "type": "bytes32"
        }
      ],
      "stateMutability": "view",
      "type": "function"
    },
    {
      "inputs": [],
      "name": "guardian",
      "outputs": [
        {
          "internalType": "address",
          "name": "",
          "type": "address"
        }
      ],
      "stateMutability": "view",
      "type": "function"
    },
    {
      "inputs": [
        {
          "internalType": "bytes32",
          "name": "_strategyUri",
          "type": "bytes32"
        },
        {
          "internalType": "address",
          "name": "_guardian",
          "type": "address"
        },
        {
          "internalType": "address",
          "name": "_oracle",
          "type": "address"
        },
        {
          "internalType": "uint256",
          "name": "_activationTime",
          "type": "uint256"
        },
        {
          "internalType": "uint256",
          "name": "_CHALLENGE_PERIOD",
          "type": "uint256"
        },
        {
          "internalType": "uint256",
          "name": "_ACTIVATION_PERIOD",
          "type": "uint256"
        },
        {
          "internalType": "uint256",
          "name": "_ACTIVE_DURATION",
          "type": "uint256"
        }
      ],
      "name": "initCampaign",
      "outputs": [],
      "stateMutability": "nonpayable",
      "type": "function"
    },
    {
      "inputs": [],
      "name": "isChallengePeriod",
      "outputs": [
        {
          "internalType": "bool",
          "name": "",
          "type": "bool"
        }
      ],
      "stateMutability": "view",
      "type": "function"
    },
    {
      "inputs": [],
      "name": "isPendingActive",
      "outputs": [
        {
          "internalType": "bool",
          "name": "isActive",
          "type": "bool"
        }
      ],
      "stateMutability": "view",
      "type": "function"
    },
    {
      "inputs": [],
      "name": "isProposeWindowActive",
      "outputs": [
        {
          "internalType": "bool",
          "name": "",
          "type": "bool"
        }
      ],
      "stateMutability": "view",
      "type": "function"
    },
    {
      "inputs": [],
      "name": "lockForWithdrawals",
      "outputs": [
        {
          "internalType": "bool",
          "name": "",
          "type": "bool"
        }
      ],
      "stateMutability": "view",
      "type": "function"
    },
    {
      "inputs": [],
      "name": "locked",
      "outputs": [
        {
          "internalType": "bool",
          "name": "",
          "type": "bool"
        }
      ],
      "stateMutability": "view",
      "type": "function"
    },
    {
      "inputs": [],
      "name": "oracle",
      "outputs": [
        {
          "internalType": "address",
          "name": "",
          "type": "address"
        }
      ],
      "stateMutability": "view",
      "type": "function"
    },
    {
      "inputs": [],
      "name": "pendingMerkleRoot",
      "outputs": [
        {
          "internalType": "bytes32",
          "name": "",
          "type": "bytes32"
        }
      ],
      "stateMutability": "view",
      "type": "function"
    },
    {
      "inputs": [
        {
          "internalType": "bytes32",
          "name": "_sharesMerkleRoot",
          "type": "bytes32"
        },
        {
          "internalType": "bytes32",
          "name": "_sharesUri",
          "type": "bytes32"
        }
      ],
      "name": "proposeShares",
      "outputs": [],
      "stateMutability": "nonpayable",
      "type": "function"
    },
    {
      "inputs": [
        {
          "internalType": "address",
          "name": "",
          "type": "address"
        },
        {
          "internalType": "address",
          "name": "",
          "type": "address"
        }
      ],
      "name": "providers",
      "outputs": [
        {
          "internalType": "uint256",
          "name": "",
          "type": "uint256"
        }
      ],
      "stateMutability": "view",
      "type": "function"
    },
    {
      "inputs": [
        {
          "internalType": "address",
          "name": "account",
          "type": "address"
        },
        {
          "internalType": "uint256",
          "name": "share",
          "type": "uint256"
        },
        {
          "internalType": "address",
          "name": "asset",
          "type": "address"
        }
      ],
      "name": "rewardsAvailableToClaimer",
      "outputs": [
        {
          "internalType": "uint256",
          "name": "total",
          "type": "uint256"
        }
      ],
      "stateMutability": "view",
      "type": "function"
    },
    {
      "inputs": [
        {
          "internalType": "bool",
          "name": "_lock",
          "type": "bool"
        }
      ],
      "name": "setLock",
      "outputs": [],
      "stateMutability": "nonpayable",
      "type": "function"
    },
    {
      "inputs": [],
      "name": "strategyUri",
      "outputs": [
        {
          "internalType": "bytes32",
          "name": "",
          "type": "bytes32"
        }
      ],
      "stateMutability": "view",
      "type": "function"
    },
    {
      "inputs": [
        {
          "internalType": "address",
          "name": "",
          "type": "address"
        }
      ],
      "name": "totalClaimed",
      "outputs": [
        {
          "internalType": "uint256",
          "name": "",
          "type": "uint256"
        }
      ],
      "stateMutability": "view",
      "type": "function"
    },
    {
      "inputs": [
        {
          "internalType": "address",
          "name": "asset",
          "type": "address"
        }
      ],
      "name": "totalReceived",
      "outputs": [
        {
          "internalType": "uint256",
          "name": "total",
          "type": "uint256"
        }
      ],
      "stateMutability": "view",
      "type": "function"
    },
    {
      "inputs": [
        {
          "internalType": "address",
          "name": "account",
          "type": "address"
        },
        {
          "internalType": "uint256",
          "name": "share",
          "type": "uint256"
        },
        {
          "internalType": "bytes32[]",
          "name": "proof",
          "type": "bytes32[]"
        }
      ],
      "name": "verifyShares",
      "outputs": [],
      "stateMutability": "view",
      "type": "function"
    },
    {
      "inputs": [],
      "name": "withdrawAllowed",
      "outputs": [
        {
          "internalType": "bool",
          "name": "",
          "type": "bool"
        }
      ],
      "stateMutability": "view",
      "type": "function"
    },
    {
      "inputs": [
        {
          "internalType": "address",
          "name": "account",
          "type": "address"
        },
        {
          "internalType": "address",
          "name": "asset",
          "type": "address"
        }
      ],
      "name": "withdrawAssets",
      "outputs": [],
      "stateMutability": "nonpayable",
      "type": "function"
    },
    {
      "stateMutability": "payable",
      "type": "receive"
    }
  ],
  "transactionHash": "0x0a48d0f8b3aeddb569ce32592eb65e75e7a7571d3ce21a94e20d4686379e351e",
  "args": [],
  "numDeployments": 1,
  "solcInputHash": "dbc29635d0778b9eecf8739a994a8a1d",
  "bytecode": "0x608060405234801561001057600080fd5b5060018055611901806100246000396000f3fe6080604052600436106101f15760003560e01c80637c99ca6d1161010d578063aab2ce79116100a0578063c3a079ed1161006f578063c3a079ed1461055e578063cf30901214610574578063d3f323571461058e578063da4493f6146105ae578063ef5d9ae8146105c457600080fd5b8063aab2ce79146104e9578063be8b7686146104fe578063c1d899411461051e578063c24e47781461053e57600080fd5b80638abb5d22116100dc5780638abb5d221461047d5780639637f4751461049d578063a98acb46146104b3578063a9ec3a1b146104d357600080fd5b80637c99ca6d146104155780637cbb7d5e1461042c5780637dc0d1d01461044157806385e3f9971461046157600080fd5b80634df9cfb311610185578063717f909211610154578063717f9092146103c157806375e07c2d146103d75780637a40624b146103ec5780637b1837de1461040257600080fd5b80634df9cfb314610355578063574eab0114610375578063619d51941461038a5780636c4fbc4a146103aa57600080fd5b80633e161940116101c15780633e161940146102aa57806340bcf748146102c057806344949728146102f8578063452a93201461031d57600080fd5b80627c4d51146102095780630c9cbf0e14610232578063162dfe001461026a57806317b9d05e1461028a57600080fd5b3661020457610202346000336105f1565b005b600080fd5b34801561021557600080fd5b5061021f60045481565b6040519081526020015b60405180910390f35b34801561023e57600080fd5b5061021f61024d366004611489565b600d60209081526000928352604080842090915290825290205481565b34801561027657600080fd5b50610202610285366004611522565b61069c565b34801561029657600080fd5b506102026102a53660046116b2565b61074f565b3480156102b657600080fd5b5061021f60035481565b3480156102cc57600080fd5b5061021f6102db366004611489565b600f60209081526000928352604080842090915290825290205481565b34801561030457600080fd5b5061030d610806565b6040519015158152602001610229565b34801561032957600080fd5b50600a5461033d906001600160a01b031681565b6040516001600160a01b039091168152602001610229565b34801561036157600080fd5b5061021f61037036600461146e565b61082c565b34801561038157600080fd5b5061030d61085e565b34801561039657600080fd5b506102026103a5366004611617565b610887565b3480156103b657600080fd5b50600754421061030d565b3480156103cd57600080fd5b5061021f60095481565b3480156103e357600080fd5b5061021f6108fa565b3480156103f857600080fd5b5061021f60085481565b6102026104103660046114bc565b61091b565b34801561042157600080fd5b50600754421161030d565b34801561043857600080fd5b506102026109a9565b34801561044d57600080fd5b50600b5461033d906001600160a01b031681565b34801561046d57600080fd5b5061021f670de0b6b3a764000081565b34801561048957600080fd5b5061020261049836600461157c565b6109f7565b3480156104a957600080fd5b5061021f60065481565b3480156104bf57600080fd5b506102026104ce366004611651565b610a63565b3480156104df57600080fd5b5061021f60055481565b3480156104f557600080fd5b5061030d610bca565b34801561050a57600080fd5b5061021f6105193660046114e6565b610be0565b34801561052a57600080fd5b5061021f61053936600461146e565b610c43565b34801561054a57600080fd5b50610202610559366004611489565b610cd7565b34801561056a57600080fd5b5061021f60025481565b34801561058057600080fd5b50600e5461030d9060ff1681565b34801561059a57600080fd5b506102026105a93660046116d4565b610db6565b3480156105ba57600080fd5b5061021f60075481565b3480156105d057600080fd5b5061021f6105df36600461146e565b600c6020526000908152604090205481565b6001600160a01b038083166000908152600f6020908152604080832093851683529290529081208054859290610628908490611785565b90915550506001600160a01b03821615610651576106516001600160a01b038316823086610eb6565b604080518481526001600160a01b0384811660208301528316917fa5e8482b3a4fbac393476288e591dd9316d7304a537b26f9b67167f0ce19750f91015b60405180910390a2505050565b60006106a66108fa565b6040516bffffffffffffffffffffffff19606088901b1660208201526034810186905290915060009060540160405160208183030381529060405280519060200120905061072a848480806020026020016040519081016040528093929190818152602001838360200280828437600092019190915250869250859150610f279050565b610747576040516309bde33960e01b815260040160405180910390fd5b505050505050565b600b546001600160a01b0316331461077a576040516380fee10560e01b815260040160405180910390fd5b600e5460ff161561079e576040516303cb96db60e21b815260040160405180910390fd5b6107a66109a9565b600680546005558290556002546107bd9042611785565b6007819055604080518481526020810184905280820192909252517f93d244ac7b8f4282b061b1dcb3f543f36f06af40a7bfdefe04fc913ef7ea54f99181900360600190a15050565b60006004546003546008544261081c91906117d0565b610826919061184e565b10905090565b6001600160a01b0381166000908152600c602052604081205461084e83610c43565b6108589190611785565b92915050565b600e5460009060ff1680156108765750610876610bca565b156108815750600190565b50600090565b600a546001600160a01b031633146108b257604051636570ecab60e11b815260040160405180910390fd5b600e805460ff19168215159081179091556040519081527f73cb6ff886d89c3816d03270daa43e4789d7c218d9a12960651ff278e1fef1f1906020015b60405180910390a150565b6000610907600754421190565b610912575060055490565b6006545b905090565b600260015414156109735760405162461bcd60e51b815260206004820152601f60248201527f5265656e7472616e637947756172643a207265656e7472616e742063616c6c0060448201526064015b60405180910390fd5b60026001556001600160a01b038216610996576109913483336105f1565b6109a1565b6109a18183336105f1565b505060018055565b6007544210156109ce5760405163ddc07f7160e01b815242600482015260240161096a565b6109d6610806565b6109f5576040516303ab46c160e11b815242600482015260240161096a565b565b610a038787878761069c565b60005b60ff8116831115610a5957610a47888886868560ff16818110610a2b57610a2b6118a4565b9050602002016020810190610a40919061146e565b3386610f3d565b80610a518161182e565b915050610a06565b5050505050505050565b600054610100900460ff1615808015610a835750600054600160ff909116105b80610a9d5750303b158015610a9d575060005460ff166001145b610b005760405162461bcd60e51b815260206004820152602e60248201527f496e697469616c697a61626c653a20636f6e747261637420697320616c72656160448201526d191e481a5b9a5d1a585b1a5e995960921b606482015260840161096a565b6000805460ff191660011790558015610b23576000805461ff0019166101001790555b6009889055600a80546001600160a01b03808a166001600160a01b031992831617909255600b80549289169290911691909117905584610b635742610b65565b845b600755426008556002849055600383905560048290558015610a59576000805461ff0019169055604051600181527f7f26b83ff96e1f2b6a682f133852f6798a09c465da95921460cefb38474024989060200160405180910390a15050505050505050565b6005546000901580156109165750506006541590565b6001600160a01b038082166000908152600d60209081526040808320938716835292905290812054670de0b6b3a764000084610c1b8561082c565b610c2591906117b1565b610c2f919061179d565b610c3991906117d0565b90505b9392505050565b60006001600160a01b03821615610cd0576040516370a0823160e01b81523060048201526001600160a01b038316906370a082319060240160206040518083038186803b158015610c9357600080fd5b505afa158015610ca7573d6000803e3d6000fd5b505050506040513d601f19601f82011682018060405250810190610ccb91906116f5565b610858565b4792915050565b610cdf61085e565b15610d9d576001600160a01b038082166000908152600f602090815260408083209386168352929052205480610d2857604051635da3252f60e11b815260040160405180910390fd5b6001600160a01b038083166000908152600f60209081526040808320938716835292905290812055610d5b838284611050565b604080518281526001600160a01b0384811660208301528516917f56c54ba9bd38d8fd62012e42c7ee564519b09763c426d331b3661b537ead19b2910161068f565b60405163209a769d60e11b815260040160405180910390fd5b600a546001600160a01b03163314610de157604051636570ecab60e11b815260040160405180910390fd5b600e5460ff1615610e05576040516303cb96db60e21b815260040160405180910390fd5b6007544210610e2957604051633e71b1bf60e11b815242600482015260240161096a565b60006006556001816002811115610e4257610e4261188e565b1415610e5a57600e805460ff19166001179055610e87565b6002816002811115610e6e57610e6e61188e565b1415610e8757600e805460ff1916600117905560006005555b7f0b700a39eebc9d322d0a5829d3d6447d9e000f73a89a7baa6a0fa28a5ec9c8d0816040516108ef919061172a565b6040516001600160a01b0380851660248301528316604482015260648101829052610f219085906323b872dd60e01b906084015b60408051601f198184030181529190526020810180516001600160e01b03166001600160e01b031990931692909217909152611112565b50505050565b600082610f3485846111e4565b14949350505050565b6000610f4a868686610be0565b6001600160a01b038086166000908152600d60209081526040808320938b16835292905290812080549293508392909190610f86908490611785565b90915550506001600160a01b0384166000908152600c602052604081208054839290610fb3908490611785565b90915550506001600160a01b03838116908716148015610fdb57506001600160a01b03821615155b15610ff057610feb828286611050565b610ffb565b610ffb868286611050565b60408051868152602081018390526001600160a01b03868116828401529151918816917fb6fe5ce185a3773d47e919f57c7edfd102c91cb7833b2be405c4de89d9980fd79181900360600190a2505050505050565b6001600160a01b0381166110f9576000836001600160a01b03168360405160006040518083038185875af1925050503d80600081146110ab576040519150601f19603f3d011682016040523d82523d6000602084013e6110b0565b606091505b5050905080610f215760405162461bcd60e51b8152602060048201526015602482015274195d1a195c881d1c985b9cd9995c8819985a5b1959605a1b604482015260640161096a565b61110d6001600160a01b0382168484611231565b505050565b6000611167826040518060400160405280602081526020017f5361666545524332303a206c6f772d6c6576656c2063616c6c206661696c6564815250856001600160a01b03166112619092919063ffffffff16565b80519091501561110d57808060200190518101906111859190611634565b61110d5760405162461bcd60e51b815260206004820152602a60248201527f5361666545524332303a204552433230206f7065726174696f6e20646964206e6044820152691bdd081cdd58d8d9595960b21b606482015260840161096a565b600081815b84518110156112295761121582868381518110611208576112086118a4565b6020026020010151611270565b91508061122181611813565b9150506111e9565b509392505050565b6040516001600160a01b03831660248201526044810182905261110d90849063a9059cbb60e01b90606401610eea565b6060610c39848460008561129c565b600081831061128c576000828152602084905260409020610c3c565b5060009182526020526040902090565b6060824710156112fd5760405162461bcd60e51b815260206004820152602660248201527f416464726573733a20696e73756666696369656e742062616c616e636520666f6044820152651c8818d85b1b60d21b606482015260840161096a565b6001600160a01b0385163b6113545760405162461bcd60e51b815260206004820152601d60248201527f416464726573733a2063616c6c20746f206e6f6e2d636f6e7472616374000000604482015260640161096a565b600080866001600160a01b03168587604051611370919061170e565b60006040518083038185875af1925050503d80600081146113ad576040519150601f19603f3d011682016040523d82523d6000602084013e6113b2565b606091505b50915091506113c28282866113cd565b979650505050505050565b606083156113dc575081610c3c565b8251156113ec5782518084602001fd5b8160405162461bcd60e51b815260040161096a9190611752565b80356001600160a01b038116811461141d57600080fd5b919050565b60008083601f84011261143457600080fd5b50813567ffffffffffffffff81111561144c57600080fd5b6020830191508360208260051b850101111561146757600080fd5b9250929050565b60006020828403121561148057600080fd5b610c3c82611406565b6000806040838503121561149c57600080fd5b6114a583611406565b91506114b360208401611406565b90509250929050565b600080604083850312156114cf57600080fd5b6114d883611406565b946020939093013593505050565b6000806000606084860312156114fb57600080fd5b61150484611406565b92506020840135915061151960408501611406565b90509250925092565b6000806000806060858703121561153857600080fd5b61154185611406565b935060208501359250604085013567ffffffffffffffff81111561156457600080fd5b61157087828801611422565b95989497509550505050565b600080600080600080600060a0888a03121561159757600080fd5b6115a088611406565b965060208801359550604088013567ffffffffffffffff808211156115c457600080fd5b6115d08b838c01611422565b909750955060608a01359150808211156115e957600080fd5b506115f68a828b01611422565b9094509250611609905060808901611406565b905092959891949750929550565b60006020828403121561162957600080fd5b8135610c3c816118ba565b60006020828403121561164657600080fd5b8151610c3c816118ba565b600080600080600080600060e0888a03121561166c57600080fd5b8735965061167c60208901611406565b955061168a60408901611406565b969995985095966060810135965060808101359560a0820135955060c0909101359350915050565b600080604083850312156116c557600080fd5b50508035926020909101359150565b6000602082840312156116e657600080fd5b813560038110610c3c57600080fd5b60006020828403121561170757600080fd5b5051919050565b600082516117208184602087016117e7565b9190910192915050565b602081016003831061174c57634e487b7160e01b600052602160045260246000fd5b91905290565b60208152600082518060208401526117718160408501602087016117e7565b601f01601f19169190910160400192915050565b6000821982111561179857611798611862565b500190565b6000826117ac576117ac611878565b500490565b60008160001904831182151516156117cb576117cb611862565b500290565b6000828210156117e2576117e2611862565b500390565b60005b838110156118025781810151838201526020016117ea565b83811115610f215750506000910152565b600060001982141561182757611827611862565b5060010190565b600060ff821660ff81141561184557611845611862565b60010192915050565b60008261185d5761185d611878565b500690565b634e487b7160e01b600052601160045260246000fd5b634e487b7160e01b600052601260045260246000fd5b634e487b7160e01b600052602160045260246000fd5b634e487b7160e01b600052603260045260246000fd5b80151581146118c857600080fd5b5056fea26469706673582212204abbd55723d614b191edc48308ec508daed2d4420a765ab763df8878b010a19f64736f6c63430008060033",
  "devdoc": {
    "kind": "dev",
    "methods": {},
    "title": "Campaign",
    "version": 1
  },
  "userdoc": {
    "kind": "user",
    "methods": {
      "TOTAL_SHARES()": {
        "notice": "Shares are considered a ratio [0-1] with 18 digits where 1E18 = 1 "
      },
      "balanceOfAsset(address)": {
        "notice": "Returns the currrent balance that the campaign holds for an asset. For the native token, asset is the zero address"
      },
      "challenge(uint8)": {
        "notice": "Guardian can challenge, with 3 possible actions: 1. Only cancel the pending merkle root, future updates are possible 2. Cancel the pending merkle root and lock the campaign, disabling any future merkle root updates 3. Cancel the whole campaign, claiming is not allowed and asset providers can withdraw back their assets "
      },
      "checkMerkleRootUpdateAllowed()": {
        "notice": "Reverits of the merkleRoot is not allowed. "
      },
      "claim(address,uint256,bytes32[],address[],address)": {
        "notice": "External function to start claiming one ore more assets. Proof verification is only done here "
      },
      "claimed(address,address)": {
        "notice": "amount of assets already claimed per claimer address, per asset address (zero address represents the native token) "
      },
      "fund(address,uint256)": {
        "notice": "Fund campaign with native or any ERC20 token. For native token, asset is the zero address.  "
      },
      "getValidRoot()": {
        "notice": "Valid root is either the approved or pending one depending on the activation time "
      },
      "initCampaign(bytes32,address,address,uint256,uint256,uint256,uint256)": {
        "notice": "Campaign initialization, called once at deploy (using the campaign factory). CHALLENGE_PERIOD > ACTIVE_DURATION is recommended to limite one proposeal per active window"
      },
      "isChallengePeriod()": {
        "notice": "Indicates whether the campaign is currently at a challenge period "
      },
      "isPendingActive()": {
        "notice": "isPendingActive returns true if the active root is the pending one "
      },
      "lockForWithdrawals()": {
        "notice": "If true, a locked campaign means withdrawals are enabled "
      },
      "locked()": {
        "notice": "Once locked, the merkleRoot cannot be updated anymore "
      },
      "pendingMerkleRoot()": {
        "notice": "Optimistic flow used to update merkleRoot. - Oracle propose update and Guardian can block - Guardian cannot initiate an update "
      },
      "proposeShares(bytes32,bytes32)": {
        "notice": "Only the oracle can propose new merkleRoot. The proposal is stored and becomes active only after a CHALLENGE_PERIOD "
      },
      "providers(address,address)": {
        "notice": "amount of rewards provided per address of provider, per asset address (zero address represents the native token) "
      },
      "rewardsAvailableToClaimer(address,uint256,address)": {
        "notice": "Calculates the amount of available rewards to claim for an account "
      },
      "setLock(bool)": {
        "notice": "Guardian can lock the campaign, meaning disable future merkle root updates. Locking a campaign with no merkle root is equivalent to canceling the campaign, allowing asset providers to withdraw "
      },
      "strategyUri()": {
        "notice": "Uri pointing to the campaign's reward strategy "
      },
      "totalClaimed(address)": {
        "notice": "amount of total assets already claimed per asset address (zero address represents the native token) "
      },
      "totalReceived(address)": {
        "notice": "Total assets received by the contract. For the native token, asset is the zero address"
      },
      "verifyShares(address,uint256,bytes32[])": {
        "notice": "Validates the shares of an account and computes the available rewards for it "
      },
      "withdrawAllowed()": {
        "notice": "Indicates whether withdrawal for providers is allowed "
      },
      "withdrawAssets(address,address)": {
        "notice": "asset providers can withdraw their assets only in case the campaign was cancelled by the guardian "
      }
    },
    "version": 1
  },
  "storageLayout": {
    "storage": [
      {
        "astId": 86,
        "contract": "contracts/Campaign.sol:Campaign",
        "label": "_initialized",
        "offset": 0,
        "slot": "0",
        "type": "t_uint8"
      },
      {
        "astId": 89,
        "contract": "contracts/Campaign.sol:Campaign",
        "label": "_initializing",
        "offset": 1,
        "slot": "0",
        "type": "t_bool"
      },
      {
        "astId": 241,
        "contract": "contracts/Campaign.sol:Campaign",
        "label": "_status",
        "offset": 0,
        "slot": "1",
        "type": "t_uint256"
      },
      {
        "astId": 1534,
        "contract": "contracts/Campaign.sol:Campaign",
        "label": "CHALLENGE_PERIOD",
        "offset": 0,
        "slot": "2",
        "type": "t_uint256"
      },
      {
        "astId": 1536,
        "contract": "contracts/Campaign.sol:Campaign",
        "label": "ACTIVATION_PERIOD",
        "offset": 0,
        "slot": "3",
        "type": "t_uint256"
      },
      {
        "astId": 1538,
        "contract": "contracts/Campaign.sol:Campaign",
        "label": "ACTIVE_DURATION",
        "offset": 0,
        "slot": "4",
        "type": "t_uint256"
      },
      {
        "astId": 1544,
        "contract": "contracts/Campaign.sol:Campaign",
        "label": "approvedMerkleRoot",
        "offset": 0,
        "slot": "5",
        "type": "t_bytes32"
      },
      {
        "astId": 1547,
        "contract": "contracts/Campaign.sol:Campaign",
        "label": "pendingMerkleRoot",
        "offset": 0,
        "slot": "6",
        "type": "t_bytes32"
      },
      {
        "astId": 1549,
        "contract": "contracts/Campaign.sol:Campaign",
        "label": "activationTime",
        "offset": 0,
        "slot": "7",
        "type": "t_uint256"
      },
      {
        "astId": 1551,
        "contract": "contracts/Campaign.sol:Campaign",
        "label": "deployTime",
        "offset": 0,
        "slot": "8",
        "type": "t_uint256"
      },
      {
        "astId": 1554,
        "contract": "contracts/Campaign.sol:Campaign",
        "label": "strategyUri",
        "offset": 0,
        "slot": "9",
        "type": "t_bytes32"
      },
      {
        "astId": 1556,
        "contract": "contracts/Campaign.sol:Campaign",
        "label": "guardian",
        "offset": 0,
        "slot": "10",
        "type": "t_address"
      },
      {
        "astId": 1558,
        "contract": "contracts/Campaign.sol:Campaign",
        "label": "oracle",
        "offset": 0,
        "slot": "11",
        "type": "t_address"
      },
      {
        "astId": 1563,
        "contract": "contracts/Campaign.sol:Campaign",
        "label": "totalClaimed",
        "offset": 0,
        "slot": "12",
        "type": "t_mapping(t_address,t_uint256)"
      },
      {
        "astId": 1570,
        "contract": "contracts/Campaign.sol:Campaign",
        "label": "claimed",
        "offset": 0,
        "slot": "13",
        "type": "t_mapping(t_address,t_mapping(t_address,t_uint256))"
      },
      {
        "astId": 1573,
        "contract": "contracts/Campaign.sol:Campaign",
        "label": "locked",
        "offset": 0,
        "slot": "14",
        "type": "t_bool"
      },
      {
        "astId": 1580,
        "contract": "contracts/Campaign.sol:Campaign",
        "label": "providers",
        "offset": 0,
        "slot": "15",
        "type": "t_mapping(t_address,t_mapping(t_address,t_uint256))"
      }
    ],
    "types": {
      "t_address": {
        "encoding": "inplace",
        "label": "address",
        "numberOfBytes": "20"
      },
      "t_bool": {
        "encoding": "inplace",
        "label": "bool",
        "numberOfBytes": "1"
      },
      "t_bytes32": {
        "encoding": "inplace",
        "label": "bytes32",
        "numberOfBytes": "32"
      },
      "t_mapping(t_address,t_mapping(t_address,t_uint256))": {
        "encoding": "mapping",
        "key": "t_address",
        "label": "mapping(address => mapping(address => uint256))",
        "numberOfBytes": "32",
        "value": "t_mapping(t_address,t_uint256)"
      },
      "t_mapping(t_address,t_uint256)": {
        "encoding": "mapping",
        "key": "t_address",
        "label": "mapping(address => uint256)",
        "numberOfBytes": "32",
        "value": "t_uint256"
      },
      "t_uint256": {
        "encoding": "inplace",
        "label": "uint256",
        "numberOfBytes": "32"
      },
      "t_uint8": {
        "encoding": "inplace",
        "label": "uint8",
        "numberOfBytes": "1"
      }
    }
  }
}