{
  "_format": "hh-sol-artifact-1",
  "contractName": "EthCampaign",
  "sourceName": "contracts/eth-campaign/EthCampaign.sol",
  "abi": [
    {
      "inputs": [],
      "name": "ActiveChallengePeriod",
      "type": "error"
    },
    {
      "inputs": [],
      "name": "ClaimingNotAllowed",
      "type": "error"
    },
    {
      "inputs": [],
      "name": "InvalidProof",
      "type": "error"
    },
    {
      "inputs": [],
      "name": "Locked",
      "type": "error"
    },
    {
      "inputs": [],
      "name": "NoFunds",
      "type": "error"
    },
    {
      "inputs": [],
      "name": "NoRewardAvailable",
      "type": "error"
    },
    {
      "inputs": [],
      "name": "OnlyGuardian",
      "type": "error"
    },
    {
      "inputs": [],
      "name": "OnlyInChallengePeriod",
      "type": "error"
    },
    {
      "inputs": [],
      "name": "OnlyOracle",
      "type": "error"
    },
    {
      "inputs": [],
      "name": "WithdrawalNotAllowed",
      "type": "error"
    },
    {
      "anonymous": false,
      "inputs": [
        {
          "indexed": false,
          "internalType": "enum Campaign.ChallengeAction",
          "name": "action",
          "type": "uint8"
        }
      ],
      "name": "Challenge",
      "type": "event"
    },
    {
      "anonymous": false,
      "inputs": [
        {
          "indexed": false,
          "internalType": "address",
          "name": "account",
          "type": "address"
        },
        {
          "indexed": false,
          "internalType": "uint256",
          "name": "share",
          "type": "uint256"
        },
        {
          "indexed": false,
          "internalType": "uint256",
          "name": "reward",
          "type": "uint256"
        }
      ],
      "name": "Claim",
      "type": "event"
    },
    {
      "anonymous": false,
      "inputs": [
        {
          "indexed": false,
          "internalType": "uint8",
          "name": "version",
          "type": "uint8"
        }
      ],
      "name": "Initialized",
      "type": "event"
    },
    {
      "anonymous": false,
      "inputs": [
        {
          "indexed": false,
          "internalType": "bytes32",
          "name": "sharesMerkleRoot",
          "type": "bytes32"
        },
        {
          "indexed": false,
          "internalType": "bytes32",
          "name": "sharesUri",
          "type": "bytes32"
        },
        {
          "indexed": false,
          "internalType": "uint256",
          "name": "activationTime",
          "type": "uint256"
        }
      ],
      "name": "SharesMerkleRoot",
      "type": "event"
    },
    {
      "anonymous": false,
      "inputs": [
        {
          "indexed": false,
          "internalType": "address",
          "name": "provider",
          "type": "address"
        },
        {
          "indexed": false,
          "internalType": "uint256",
          "name": "amount",
          "type": "uint256"
        }
      ],
      "name": "ValueIn",
      "type": "event"
    },
    {
      "anonymous": false,
      "inputs": [
        {
          "indexed": false,
          "internalType": "address",
          "name": "account",
          "type": "address"
        },
        {
          "indexed": false,
          "internalType": "uint256",
          "name": "amount",
          "type": "uint256"
        }
      ],
      "name": "Withdraw",
      "type": "event"
    },
    {
      "inputs": [],
      "name": "CHALLENGE_PERIOD",
      "outputs": [
        {
          "internalType": "uint256",
          "name": "",
          "type": "uint256"
        }
      ],
      "stateMutability": "view",
      "type": "function"
    },
    {
      "inputs": [],
      "name": "TOTAL_SHARES",
      "outputs": [
        {
          "internalType": "uint256",
          "name": "",
          "type": "uint256"
        }
      ],
      "stateMutability": "view",
      "type": "function"
    },
    {
      "inputs": [],
      "name": "activationTime",
      "outputs": [
        {
          "internalType": "uint256",
          "name": "",
          "type": "uint256"
        }
      ],
      "stateMutability": "view",
      "type": "function"
    },
    {
      "inputs": [],
      "name": "approvedMerkleRoot",
      "outputs": [
        {
          "internalType": "bytes32",
          "name": "",
          "type": "bytes32"
        }
      ],
      "stateMutability": "view",
      "type": "function"
    },
    {
      "inputs": [
        {
          "internalType": "enum Campaign.ChallengeAction",
          "name": "action",
          "type": "uint8"
        }
      ],
      "name": "challenge",
      "outputs": [],
      "stateMutability": "nonpayable",
      "type": "function"
    },
    {
      "inputs": [
        {
          "internalType": "address",
          "name": "account",
          "type": "address"
        },
        {
          "internalType": "uint256",
          "name": "share",
          "type": "uint256"
        },
        {
          "internalType": "bytes32[]",
          "name": "proof",
          "type": "bytes32[]"
        }
      ],
      "name": "claim",
      "outputs": [],
      "stateMutability": "nonpayable",
      "type": "function"
    },
    {
      "inputs": [
        {
          "internalType": "address",
          "name": "",
          "type": "address"
        }
      ],
      "name": "claimed",
      "outputs": [
        {
          "internalType": "uint256",
          "name": "",
          "type": "uint256"
        }
      ],
      "stateMutability": "view",
      "type": "function"
    },
    {
      "inputs": [],
      "name": "getValidRoot",
      "outputs": [
        {
          "internalType": "bytes32",
          "name": "root",
          "type": "bytes32"
        }
      ],
      "stateMutability": "view",
      "type": "function"
    },
    {
      "inputs": [],
      "name": "guardian",
      "outputs": [
        {
          "internalType": "address",
          "name": "",
          "type": "address"
        }
      ],
      "stateMutability": "view",
      "type": "function"
    },
    {
      "inputs": [
        {
          "internalType": "bytes32",
          "name": "_sharesMerkleRoot",
          "type": "bytes32"
        },
        {
          "internalType": "bytes32",
          "name": "_strategyUri",
          "type": "bytes32"
        },
        {
          "internalType": "address",
          "name": "_guardian",
          "type": "address"
        },
        {
          "internalType": "address",
          "name": "_oracle",
          "type": "address"
        }
      ],
      "name": "initCampaign",
      "outputs": [],
      "stateMutability": "nonpayable",
      "type": "function"
    },
    {
      "inputs": [
        {
          "internalType": "bytes32",
          "name": "_sharesMerkleRoot",
          "type": "bytes32"
        },
        {
          "internalType": "bytes32",
          "name": "_strategyUri",
          "type": "bytes32"
        },
        {
          "internalType": "address",
          "name": "_guardian",
          "type": "address"
        },
        {
          "internalType": "address",
          "name": "_oracle",
          "type": "address"
        }
      ],
      "name": "initEthCampaign",
      "outputs": [],
      "stateMutability": "nonpayable",
      "type": "function"
    },
    {
      "inputs": [],
      "name": "locked",
      "outputs": [
        {
          "internalType": "bool",
          "name": "",
          "type": "bool"
        }
      ],
      "stateMutability": "view",
      "type": "function"
    },
    {
      "inputs": [],
      "name": "oracle",
      "outputs": [
        {
          "internalType": "address",
          "name": "",
          "type": "address"
        }
      ],
      "stateMutability": "view",
      "type": "function"
    },
    {
      "inputs": [],
      "name": "pendingMerkleRoot",
      "outputs": [
        {
          "internalType": "bytes32",
          "name": "",
          "type": "bytes32"
        }
      ],
      "stateMutability": "view",
      "type": "function"
    },
    {
      "inputs": [
        {
          "internalType": "bytes32",
          "name": "_sharesMerkleRoot",
          "type": "bytes32"
        },
        {
          "internalType": "bytes32",
          "name": "_sharesUri",
          "type": "bytes32"
        }
      ],
      "name": "proposeShares",
      "outputs": [],
      "stateMutability": "nonpayable",
      "type": "function"
    },
    {
      "inputs": [
        {
          "internalType": "address",
          "name": "",
          "type": "address"
        }
      ],
      "name": "providers",
      "outputs": [
        {
          "internalType": "uint256",
          "name": "",
          "type": "uint256"
        }
      ],
      "stateMutability": "view",
      "type": "function"
    },
    {
      "inputs": [
        {
          "internalType": "address",
          "name": "account",
          "type": "address"
        },
        {
          "internalType": "uint256",
          "name": "share",
          "type": "uint256"
        },
        {
          "internalType": "bytes32[]",
          "name": "proof",
          "type": "bytes32[]"
        }
      ],
      "name": "rewardsAvailableToClaimer",
      "outputs": [
        {
          "internalType": "uint256",
          "name": "total",
          "type": "uint256"
        }
      ],
      "stateMutability": "view",
      "type": "function"
    },
    {
      "inputs": [
        {
          "internalType": "bool",
          "name": "_lock",
          "type": "bool"
        }
      ],
      "name": "setLock",
      "outputs": [],
      "stateMutability": "nonpayable",
      "type": "function"
    },
    {
      "inputs": [],
      "name": "strategyUri",
      "outputs": [
        {
          "internalType": "bytes32",
          "name": "",
          "type": "bytes32"
        }
      ],
      "stateMutability": "view",
      "type": "function"
    },
    {
      "inputs": [],
      "name": "totalClaimed",
      "outputs": [
        {
          "internalType": "uint256",
          "name": "",
          "type": "uint256"
        }
      ],
      "stateMutability": "view",
      "type": "function"
    },
    {
      "inputs": [],
      "name": "totalFundsReceived",
      "outputs": [
        {
          "internalType": "uint256",
          "name": "total",
          "type": "uint256"
        }
      ],
      "stateMutability": "view",
      "type": "function"
    },
    {
      "inputs": [],
      "name": "totalReward",
      "outputs": [
        {
          "internalType": "uint256",
          "name": "",
          "type": "uint256"
        }
      ],
      "stateMutability": "view",
      "type": "function"
    },
    {
      "inputs": [
        {
          "internalType": "address",
          "name": "account",
          "type": "address"
        }
      ],
      "name": "withdrawFunds",
      "outputs": [],
      "stateMutability": "nonpayable",
      "type": "function"
    },
    {
      "stateMutability": "payable",
      "type": "receive"
    }
  ],
  "bytecode": "0x608060405234801561001057600080fd5b50610fca806100206000396000f3fe6080604052600436106101445760003560e01c80637dc0d1d0116100b6578063c3a079ed1161006f578063c3a079ed146103dd578063c884ef83146103f4578063cf30901214610421578063d3f323571461044b578063d54ad2a11461046b578063da4493f61461048157600080fd5b80637dc0d1d01461034057806385e3f997146103605780639637f4751461037c578063a9ec3a1b14610392578063b4f205be146103a8578063bf27f585146103c857600080fd5b8063452a932011610108578063452a932014610287578063619d5194146102bf57806368742da6146102df578063717f9092146102ff578063750142e61461031557806375e07c2d1461032b57600080fd5b80630787bc27146101c557806317b9d05e146102055780633d13f874146102275780634009634114610247578063414f33dd1461026757600080fd5b366101c057336000908152600b602052604081208054349290610168908490610ec7565b9250508190555034600760008282546101819190610ec7565b9091555050604080513381523460208201527fa8044513073c23047a922f0bf7142f18c341a73184b9f8055349b4415fb9d6ca910160405180910390a1005b600080fd5b3480156101d157600080fd5b506101f26101e0366004610cfa565b600b6020526000908152604090205481565b6040519081526020015b60405180910390f35b34801561021157600080fd5b50610225610220366004610dc8565b610497565b005b34801561023357600080fd5b50610225610242366004610d1c565b610579565b34801561025357600080fd5b50610225610262366004610dea565b610663565b34801561027357600080fd5b50610225610282366004610dea565b610675565b34801561029357600080fd5b506005546102a7906001600160a01b031681565b6040516001600160a01b0390911681526020016101fc565b3480156102cb57600080fd5b506102256102da366004610da6565b61073e565b3480156102eb57600080fd5b506102256102fa366004610cfa565b61077c565b34801561030b57600080fd5b506101f260045481565b34801561032157600080fd5b506101f260075481565b34801561033757600080fd5b506101f2610855565b34801561034c57600080fd5b506006546102a7906001600160a01b031681565b34801561036c57600080fd5b506101f2670de0b6b3a764000081565b34801561038857600080fd5b506101f260025481565b34801561039e57600080fd5b506101f260015481565b3480156103b457600080fd5b506101f26103c3366004610d1c565b610870565b3480156103d457600080fd5b506101f2610970565b3480156103e957600080fd5b506101f262093a8081565b34801561040057600080fd5b506101f261040f366004610cfa565b600a6020526000908152604090205481565b34801561042d57600080fd5b5060095461043b9060ff1681565b60405190151581526020016101fc565b34801561045757600080fd5b50610225610466366004610e30565b610982565b34801561047757600080fd5b506101f260085481565b34801561048d57600080fd5b506101f260035481565b6006546001600160a01b031633146104c2576040516380fee10560e01b815260040160405180910390fd5b60095460ff16156104e6576040516303cb96db60e21b815260040160405180910390fd5b600254158015906104f8575060035442105b1561051657604051633420251360e11b815260040160405180910390fd5b6002805460015582905561052d62093a8042610ec7565b60038190556040805184815260208101849052908101919091527ff538af40d5ad77456cbcd96a5be317d724e66e0e08eb217c14812308bd43d35e906060015b60405180910390a15050565b600061058785858585610870565b9050806105a757604051636d363c4560e01b815260040160405180910390fd5b6001600160a01b0385166000908152600a6020526040812080548392906105cf908490610ec7565b9250508190555080600860008282546105e89190610ec7565b9250508190555080600760008282546106019190610f20565b9091555061061190508582610b27565b604080516001600160a01b0387168152602081018690529081018290527f34fcbac0073d7c3d388e51312faf357774904998eeb8fca628b9e6f65ee1cbf7906060015b60405180910390a15050505050565b61066f84848484610675565b50505050565b60006106816001610bcc565b90508015610699576000805461ff0019166101001790555b6004849055600580546001600160a01b038086166001600160a01b031992831617909255600680549285169290911691909117905584156106ee5760028590556106e662093a8042610ec7565b6003556106f5565b6000196003555b8015610737576000805461ff0019169055604051600181527f7f26b83ff96e1f2b6a682f133852f6798a09c465da95921460cefb384740249890602001610654565b5050505050565b6005546001600160a01b0316331461076957604051636570ecab60e11b815260040160405180910390fd5b6009805460ff1916911515919091179055565b60095460ff16801561078e5750600154155b1561083c576007546001600160a01b0382166000908152600b602052604081205490916107ba91610edf565b9050806107da5760405163043f9e1160e41b815260040160405180910390fd5b6001600160a01b0382166000908152600b60205260408120556107fd8282610b27565b604080516001600160a01b0384168152602081018390527f884edad9ce6fa2440d8a54cc123490eb96d2768479d49ff9c7366125a9424364910161056d565b60405163209a769d60e11b815260040160405180910390fd5b60006003544211610867575060015490565b6002545b905090565b60008061087b610855565b6040516bffffffffffffffffffffffff19606089901b166020820152603481018790529091506000906054016040516020818303038152906040528051906020012090506108ff858580806020026020016040519081016040528093929190818152602001838360200280828437600092019190915250869250859150610c599050565b61091c576040516309bde33960e01b815260040160405180910390fd5b6001600160a01b0387166000908152600a6020526040902054670de0b6b3a764000087610947610970565b6109519190610f01565b61095b9190610edf565b6109659190610f20565b979650505050505050565b600060085460075461086b9190610ec7565b6005546001600160a01b031633146109ad57604051636570ecab60e11b815260040160405180910390fd5b60095460ff16156109d1576040516303cb96db60e21b815260040160405180910390fd5b600254158015906109e3575060035442115b15610a0157604051631b69dd1760e21b815260040160405180910390fd5b60006002556000196003556001816002811115610a2057610a20610f68565b1415610a7c57604051631867546560e21b815260016004820152309063619d519490602401600060405180830381600087803b158015610a5f57600080fd5b505af1158015610a73573d6000803e3d6000fd5b50505050610aed565b6002816002811115610a9057610a90610f68565b1415610aed57604051631867546560e21b815260016004820152309063619d519490602401600060405180830381600087803b158015610acf57600080fd5b505af1158015610ae3573d6000803e3d6000fd5b5050600060015550505b7f0b700a39eebc9d322d0a5829d3d6447d9e000f73a89a7baa6a0fa28a5ec9c8d081604051610b1c9190610e51565b60405180910390a150565b6000826001600160a01b03168260405160006040518083038185875af1925050503d8060008114610b74576040519150601f19603f3d011682016040523d82523d6000602084013e610b79565b606091505b5050905080610bc75760405162461bcd60e51b8152602060048201526015602482015274195d1a195c881d1c985b9cd9995c8819985a5b1959605a1b60448201526064015b60405180910390fd5b505050565b60008054610100900460ff1615610c13578160ff166001148015610bef5750303b155b610c0b5760405162461bcd60e51b8152600401610bbe90610e79565b506000919050565b60005460ff808416911610610c3a5760405162461bcd60e51b8152600401610bbe90610e79565b506000805460ff191660ff92909216919091179055600190565b919050565b600082610c668584610c6f565b14949350505050565b600081815b8451811015610cdb576000858281518110610c9157610c91610f7e565b60200260200101519050808311610cb75760008381526020829052604090209250610cc8565b600081815260208490526040902092505b5080610cd381610f37565b915050610c74565b509392505050565b80356001600160a01b0381168114610c5457600080fd5b600060208284031215610d0c57600080fd5b610d1582610ce3565b9392505050565b60008060008060608587031215610d3257600080fd5b610d3b85610ce3565b935060208501359250604085013567ffffffffffffffff80821115610d5f57600080fd5b818701915087601f830112610d7357600080fd5b813581811115610d8257600080fd5b8860208260051b8501011115610d9757600080fd5b95989497505060200194505050565b600060208284031215610db857600080fd5b81358015158114610d1557600080fd5b60008060408385031215610ddb57600080fd5b50508035926020909101359150565b60008060008060808587031215610e0057600080fd5b8435935060208501359250610e1760408601610ce3565b9150610e2560608601610ce3565b905092959194509250565b600060208284031215610e4257600080fd5b813560038110610d1557600080fd5b6020810160038310610e7357634e487b7160e01b600052602160045260246000fd5b91905290565b6020808252602e908201527f496e697469616c697a61626c653a20636f6e747261637420697320616c72656160408201526d191e481a5b9a5d1a585b1a5e995960921b606082015260800190565b60008219821115610eda57610eda610f52565b500190565b600082610efc57634e487b7160e01b600052601260045260246000fd5b500490565b6000816000190483118215151615610f1b57610f1b610f52565b500290565b600082821015610f3257610f32610f52565b500390565b6000600019821415610f4b57610f4b610f52565b5060010190565b634e487b7160e01b600052601160045260246000fd5b634e487b7160e01b600052602160045260246000fd5b634e487b7160e01b600052603260045260246000fdfea2646970667358221220228d508b5aca096698d7cd2d30529de6e099040a5e9c4943a4c5d9c3c4d868bc64736f6c63430008060033",
  "linkReferences": {},
  "deployedLinkReferences": {}
}