{
  "address": "0xCf7Ed3AccA5a467e9e704C703E8D87F634fB0Fc9",
  "abi": [
    {
      "inputs": [
        {
          "internalType": "address payable",
          "name": "_master",
          "type": "address"
        }
      ],
      "stateMutability": "nonpayable",
      "type": "constructor"
    },
    {
      "anonymous": false,
      "inputs": [
        {
          "indexed": false,
          "internalType": "address",
          "name": "creator",
          "type": "address"
        },
        {
          "indexed": false,
          "internalType": "address",
          "name": "newCampaign",
          "type": "address"
        },
        {
          "indexed": false,
          "internalType": "bytes32",
          "name": "_sharesMerkleRoot",
          "type": "bytes32"
        },
        {
          "indexed": false,
          "internalType": "bytes32",
          "name": "_sharesUri",
          "type": "bytes32"
        },
        {
          "indexed": false,
          "internalType": "bytes32",
          "name": "_strategyUri",
          "type": "bytes32"
        },
        {
          "indexed": false,
          "internalType": "address",
          "name": "_guardian",
          "type": "address"
        },
        {
          "indexed": false,
          "internalType": "address",
          "name": "_oracle",
          "type": "address"
        },
        {
          "indexed": false,
          "internalType": "bytes32",
          "name": "salt",
          "type": "bytes32"
        }
      ],
      "name": "CampaignCreated",
      "type": "event"
    },
    {
      "inputs": [
        {
          "internalType": "bytes32",
          "name": "salt",
          "type": "bytes32"
        }
      ],
      "name": "campaignAddress",
      "outputs": [
        {
          "internalType": "address",
          "name": "",
          "type": "address"
        }
      ],
      "stateMutability": "view",
      "type": "function"
    },
    {
      "inputs": [
        {
          "internalType": "bytes32",
          "name": "_sharesMerkleRoot",
          "type": "bytes32"
        },
        {
          "internalType": "bytes32",
          "name": "_sharesUri",
          "type": "bytes32"
        },
        {
          "internalType": "bytes32",
          "name": "_strategyUri",
          "type": "bytes32"
        },
        {
          "internalType": "address",
          "name": "_guardian",
          "type": "address"
        },
        {
          "internalType": "address",
          "name": "_oracle",
          "type": "address"
        },
        {
          "internalType": "bytes32",
          "name": "salt",
          "type": "bytes32"
        }
      ],
      "name": "createCampaign",
      "outputs": [],
      "stateMutability": "nonpayable",
      "type": "function"
    }
  ],
  "transactionHash": "0x3df26f9947c7609f3f8dcfce60207d9db849c9ef58e66d1fa110fe152b5f08f2",
  "args": [
    "0x5FbDB2315678afecb367f032d93F642f64180aa3"
  ],
  "numDeployments": 1,
  "solcInputHash": "9c1cd527e804ae06ba3962e1f6eed119",
  "bytecode": "0x608060405234801561001057600080fd5b5060405161040738038061040783398101604081905261002f91610054565b600080546001600160a01b0319166001600160a01b0392909216919091179055610084565b60006020828403121561006657600080fd5b81516001600160a01b038116811461007d57600080fd5b9392505050565b610374806100936000396000f3fe608060405234801561001057600080fd5b50600436106100365760003560e01c80634bef4a641461003b5780636e1a1fac14610050575b600080fd5b61004e6100493660046102e6565b61007f565b005b61006361005e3660046102cd565b610183565b6040516001600160a01b03909116815260200160405180910390f35b60008054610096906001600160a01b0316836101a0565b60405163414f33dd60e01b815260048101899052602481018790526001600160a01b03868116604483015285811660648301529192509082169063414f33dd90608401600060405180830381600087803b1580156100f357600080fd5b505af1158015610107573d6000803e3d6000fd5b5050604080513381526001600160a01b0385811660208301528183018c9052606082018b9052608082018a905288811660a0830152871660c082015260e0810186905290517fecef63711db66bd7cfde4599c350ea43f466d9711ffda7a4c653f3f136ee357c935090819003610100019150a150505050505050565b6000805461019a906001600160a01b031683610244565b92915050565b6000604051733d602d80600a3d3981f3363d3d373d3d3d363d7360601b81528360601b60148201526e5af43d82803e903d91602b57fd5bf360881b6028820152826037826000f59150506001600160a01b03811661019a5760405162461bcd60e51b815260206004820152601760248201527f455243313136373a2063726561746532206661696c6564000000000000000000604482015260640160405180910390fd5b60006102aa838330604051733d602d80600a3d3981f3363d3d373d3d3d363d7360601b8152606093841b60148201526f5af43d82803e903d91602b57fd5bf3ff60801b6028820152921b6038830152604c8201526037808220606c830152605591012090565b9392505050565b80356001600160a01b03811681146102c857600080fd5b919050565b6000602082840312156102df57600080fd5b5035919050565b60008060008060008060c087890312156102ff57600080fd5b86359550602087013594506040870135935061031d606088016102b1565b925061032b608088016102b1565b915060a08701359050929550929550929556fea26469706673582212207cdc8ad6143a0c2300270f1d1a887b874417c8e22955168eaed6b8167f87c73964736f6c63430008060033",
  "devdoc": {
    "kind": "dev",
    "methods": {},
    "version": 1
  },
  "userdoc": {
    "kind": "user",
    "methods": {},
    "version": 1
  },
  "storageLayout": {
    "storage": [
      {
        "astId": 2319,
        "contract": "contracts/CampaignFactory.sol:CampaignFactory",
        "label": "master",
        "offset": 0,
        "slot": "0",
        "type": "t_contract(Campaign)2311"
      }
    ],
    "types": {
      "t_contract(Campaign)2311": {
        "encoding": "inplace",
        "label": "contract Campaign",
        "numberOfBytes": "20"
      }
    }
  }
}